:020000040800F2
:1000000000280020711900087117000877170008F0
:100010007D170008831700088917000800000000FA
:100020000000000000000000000000008F17000822
:100030009B17000800000000A7170008B31700086E
:10004000B9190008B9190008B9190008B919000848
:10005000B9190008B9190008B9190008B919000838
:10006000B9190008B9190008B9190008B919000828
:10007000B9190008B9190008B9190008B919000818
:10008000B9190008B9190008B9190008B919000808
:10009000B9190008B9190008B9190008B9190008F8
:1000A000B9190008B9190008B9190008B9190008E8
:1000B000C1170008B919000800000000B9190008AC
:1000C000B91900080000000000000000B91900087C
:1000D00000000000B9190008B9190008000000006C
:1000E000B9190008B9190008B91900080000000082
:1000F0000000000000000000000000000000000000
:0C01000000000000000000005FF808F1A3
:10010C0010B5054C237833B9044B13B10448AFF345
:10011C0000800123237010BD50000020000000005F
:10012C00B82F000808B5034B1BB103490348AFF3C4
:10013C00008008BD0000000054000020B82F00080B
:10014C0080B400AF064B1B68012B04D1044B00227A
:10015C001A60012300E000231846BD4680BC70479E
:10016C008400002080B400AF064B5B68012B04D1E7
:10017C00044B00225A60012300E000231846BD46C0
:10018C0080BC70478400002080B400AF064B9B6895
:10019C00012B04D1044B00229A60012300E00023C0
:1001AC001846BD4680BC70478400002080B483B0E4
:1001BC0000AF7860044A7B68012142F8231000BF2D
:1001CC000C37BD4680BC70478400002080B582B0DF
:1001DC0000AF00237B607CE0424A7B6852F823200E
:1001EC0041497B6841F82320404A7B6852F8232020
:1001FC003C497B6841F823207B68002B0BD14FF4E2
:10020C0000513B4801F0BEFE03461946374A7B6855
:10021C0042F8231019E07B68012B0BD14FF480417D
:10022C00334801F0AFFE03461946304A7B6842F86A
:10023C0023100AE04FF400412D4801F0A3FE0346C1
:10024C0019462A4A7B6842F82310264A7B6852F8E2
:10025C00232026497B6851F823309A4236D1214A13
:10026C007B6852F8232020497B6851F823309A424E
:10027C002CD11D4A7B6852F823201E497B6851F80B
:10028C0023309A4214D0184A7B6852F8232019491B
:10029C007B6841F82320174A7B6852F82330002BE7
:1002AC0014D17868FFF782FF134BC8221A600DE057
:1002BC00114B1B68013B104A13600F4B1B68002B42
:1002CC0004D10C4A7B68012142F823107B6801336E
:1002DC007B607B68022B7FF77FAF00BF00BF0837C6
:1002EC00BD4680BD0C00002018000020000000203E
:1002FC0000080140240000203000002080B500AF31
:10030C00A54B1B68013B042B00F2638201A252F83F
:10031C0023F000BF35030008730300088D040008A8
:10032C00D5050008D10600089B4B02221A6001F08B
:10033C0051FA9A4B1B684FF4FA7202FB03F31846FE
:10034C0001F036F94FF4FA7001F066F9944B1B6822
:10035C00944A1360944B1B68944A13608F4B1B6830
:10036C00934A13603EE201F05DFA924B1B68012B3D
:10037C0017D1894B03221A608B4B1B684FF4FA720E
:10038C0002FB03F3184601F013F98B4B01221A60A0
:10039C00844B1B68013B834A13604FF4FA7001F0E5
:1003AC003BF9854B1B68012B49D1FA2001F01AF956
:1003BC00824B1B68002B02D0012B1CD040E0794BE8
:1003CC001B687F4A82FB03129210DB17D31A0021A1
:1003DC00184600F0C9FD764B1B68794A82FB031264
:1003EC009210DB17D31A0021184600F0FDFB734B5B
:1003FC0001221A6024E06B4B1A68714B83FB0213C9
:10040C009910D317C81A03469B0003445B00D01AFB
:10041C00012100F0A9FD664B1A68694B83FB02139E
:10042C009910D317C81A03469B0003445B00D01ADB
:10043C00012100F0D9FB614B00221A6000E000BFE3
:10044C00604B1B68012B0DD14FF4FA7001F0E4F8EE
:10045C00544B1B68013B534A1360554B1B68013BC3
:10046C00534A1360FFF76CFE0346012B40F0B38137
:10047C00494B0C221A6042F2107001F099F8AAE173
:10048C0001F0F8F94B4B1B68012B1ED1424B042297
:10049C001A60424B1B684FF4FA7202FB03F31846C6
:1004AC0001F086F8444B01221A604FF4FA7001F007
:1004BC00B3F83B4B1B683B4A1360384B1B683C4AF8
:1004CC001360394B1B68394A13603B4B1B68012B7B
:1004DC0049D1FA2001F086F8384B1B68002B02D06A
:1004EC00012B1CD040E02F4B1B68354A82FB0312BA
:1004FC009210DB17D31A0021184600F035FD2B4B58
:10050C001B682F4A82FB03129210DB17D31A0021AF
:10051C00184600F069FB294B01221A6024E0214B9C
:10052C001A68274B83FB02139910D317C81A03467A
:10053C009B0003445B00D01A012100F015FD1B4BFE
:10054C001A681F4B83FB02139910D317C81A034662
:10055C009B0003445B00D01A012100F045FB174BB4
:10056C0000221A6000E000BF164B1B68012B40F004
:10057C0034814FF4FA7001F04FF80F4B01221A60DE
:10058C00084B1B68013B074A1360084B1B68013B77
:10059C00064A136021E100BF74000020B80000205F
:1005AC00BC000020A8000020B4000020B0000020F7
:1005BC00AC000020780000207C0000206C000020A3
:1005CC00676666668000002001F07CF9864B1B682C
:1005DC00012B14D1854B05221A60854B1B684FF4F7
:1005EC00FA7202FB03F3184600F0E2FF814B1B6822
:1005FC00013B804A13604FF4FA7001F00DF87E4B0A
:10060C001B68012B49D1FA2000F0ECFF7B4B1B68D7
:10061C00002B02D0012B1CD040E0794B1B68794A8F
:10062C0082FB03129210DB17D31A0021184600F03C
:10063C009BFC704B1B68734A82FB03129210DB17F6
:10064C00D31A0021184600F0CFFA6C4B01221A6025
:10065C0024E06B4B1A686B4B83FB02139910D31776
:10066C00C81A03469B0003445B00D01A012100F01A
:10067C007BFC604B1A68634B83FB02139910D317F6
:10068C00C81A03469B0003445B00D01A012100F0FA
:10069C00ABFA5A4B00221A6000E000BF5A4B1B68A1
:1006AC00012B40F09C804FF4FA7000F0B5FF514BD9
:1006BC001B68013B4F4A1360514B1B68013B504A6E
:1006CC0013608CE001F026F9474B1B68012B1ED1FF
:1006DC00464B02221A604D4B1B684FF4FA7202FB18
:1006EC0003F3184600F064FF434B01221A604FF4E9
:1006FC00FA7000F091FF464B1B683E4A1360434B67
:10070C001B683F4A13603A4B1B68424A13603A4BD2
:10071C001B68012B49D1FA2000F064FF374B1B6892
:10072C00002B02D0012B1CD040E0324B1B68354A09
:10073C0082FB03129210DB17D31A0021184600F02B
:10074C0013FC344B1B682F4A82FB03129210DB17ED
:10075C00D31A0021184600F047FA284B01221A60E0
:10076C0024E0244B1A68274B83FB02139910D317F0
:10077C00C81A03469B0003445B00D01A012100F009
:10078C00F3FB244B1A681F4B83FB02139910D317EE
:10079C00C81A03469B0003445B00D01A012100F0E9
:1007AC0023FA164B00221A6000E000BF164B1B68A0
:1007BC00012B16D14FF4FA7000F02EFF0D4B1B6875
:1007CC00013B0C4A1360134B1B68013B114A13602D
:1007DC0007E000BF06E000BF04E000BF02E000BF7E
:1007EC0000E000BF00BF80BD780000207400002036
:1007FC00B4000020A80000207C0000206C00002029
:10080C00AC0000206766666680000020B8000020FF
:10081C00BC000020B000002080B500AF144B1B685A
:10082C00012B21D1FA2000F0DDFE124B1B68002BAE
:10083C0002D0012B0CD018E00021002000F094FB1A
:10084C000021002000F0D0F90A4B01221A600CE0C4
:10085C000021002000F088FB0121012000F0C4F9E8
:10086C00044B00221A6000E000BF00BF80BD00BF37
:10087C007C0000207000002080B500AF1E4B1B6870
:10088C00012B35D1FA2000F0ADFE1C4B1B68002B60
:10089C0002D0012B14D02CE0194B1B68194A82FB97
:1008AC0003129210DB17D31A0021184600F05CFBE0
:1008BC000021002000F098F9104B01221A6018E07A
:1008CC000F4B1A680F4B83FB02139910D317C81ADE
:1008DC0003469B0003445B00D01A012100F044FB4B
:1008EC000121022000F080F9044B00221A6000E084
:1008FC0000BF00BF80BD00BF7C0000207000002046
:10090C00BC0000206766666680B500AF1E4B1B6896
:10091C00012B35D1FA2000F065FE1C4B1B68002B17
:10092C0002D0012B14D02CE0194B1B68194A82FB06
:10093C0003129210DB17D31A0021184600F014FB97
:10094C000021002000F050F9104B01221A6018E031
:10095C000F4B1A680F4B83FB02139910D317C81A4D
:10096C0003469B0003445B00D01A012100F0FCFA03
:10097C000121032000F038F9044B00221A6000E03A
:10098C0000BF00BF80BD00BF7C00002070000020B5
:10099C00B40000206766666680B500AF1E4B1B680E
:1009AC00012B35D1FA2000F01DFE1C4B1B68002BCF
:1009BC0002D0012B14D02CE0194B1B68194A82FB76
:1009CC0003129210DB17D31A0021184600F0CCFA50
:1009DC000021002000F008F9104B01221A6018E0E9
:1009EC000F4B1A680F4B83FB02139910D317C81ABD
:1009FC0003469B0003445B00D01A012100F0B4FABB
:100A0C000121042000F0F0F8044B00221A6000E0F1
:100A1C0000BF00BF80BD00BF7C0000207000002024
:100A2C00B80000206766666680B500AF5F4B1B6838
:100A3C000C3B032B00F2AF8001A252F823F000BF55
:100A4C005D0A00089B0A0008F30A00084B0B00081B
:100A5C00FFF7E2FE564B1B68012B02D1534B0122D0
:100A6C001A60FFF76DFB0346012B06D142F21070A2
:100A7C0000F09EFD4D4B0D221A60FFF785FB0346DF
:100A8C00012B40F08A80494B01221A6085E0FFF768
:100A9C00F3FE474B1B68012B02D1444B01221A6019
:100AAC00FFF74EFB0346012B06D142F2107000F00B
:100ABC007FFD3E4B0E221A60FFF754FB0346012BC1
:100ACC0008D142F2107000F073FD3A4B1B680133F1
:100ADC00384A1360FFF758FB0346012B5FD1334BA9
:100AEC0001221A605BE0FFF70FFF314B1B68012BF3
:100AFC0002D12E4B01221A60FFF722FB0346012B79
:100B0C0006D142F2107000F053FD284B0F221A60F0
:100B1C00FFF728FB0346012B08D142F2107000F0BE
:100B2C0047FD254B1B680133234A1360FFF72CFB51
:100B3C000346012B35D11D4B01221A6031E0FFF722
:100B4C002BFF1B4B1B68012B02D1184B01221A6087
:100B5C00FFF7F6FA0346012B06D142F2107000F0B3
:100B6C0027FD124B0C221A60FFF7FCFA0346012BEF
:100B7C0008D142F2107000F01BFD104B1B680133C2
:100B8C000E4A1360FFF700FB0346012B0BD1074BFA
:100B9C0001221A6007E000BF06E000BF04E000BFBE
:100BAC0002E000BF00E000BF00BF80BD7400002069
:100BBC0078000020BC000020B4000020B800002009
:100BCC0080B400AF054B1A68054B1B681344054AEB
:100BDC00136000BFBD4680BC704700BFB80000204A
:100BEC00B4000020BC00002080B582B000AF78605B
:100BFC0039603B68002B14D100220221C24801F05D
:100C0C00D8F901220421C04801F0D3F900220821AF
:100C1C00BD4801F0CEF901221021BB4801F0C9F901
:100C2C0013E001220221B84801F0C3F9002204218B
:100C3C00B54801F0BEF901220821B34801F0B9F919
:100C4C0000221021B04801F0B4F97B68092B00F2A6
:100C5C00838101A252F823F08D0C0008D50C0008FA
:100C6C001D0D0008650D0008AD0D0008F50D000800
:100C7C003D0E0008850E0008CD0E00081D0F000863
:100C8C0000220121A14801F094F9002202219F4881
:100C9C0001F08FF9002204219C4801F08AF900220E
:100CAC0008219A4801F085F900221021974801F09B
:100CBC0080F900222021954801F07BF90122402186
:100CCC00924801F076F948E1012201218F4801F0A8
:100CDC0070F9002202218D4801F06BF900220421E9
:100CEC008A4801F066F901220821884801F061F96F
:100CFC0001221021854801F05CF901222021834852
:100D0C0001F057F901224021804801F052F924E109
:100D1C00002201217D4801F04CF9002202217B4880
:100D2C0001F047F901220421784801F042F9002230
:100D3C000821764801F03DF900221021734801F09A
:100D4C0038F901222021714801F033F900224021A9
:100D5C006E4801F02EF900E1002201216B4801F0F0
:100D6C0028F900220221694801F023F9002204210C
:100D7C00664801F01EF900220821644801F019F9B7
:100D8C0001221021614801F014F9012220215F4851
:100D9C0001F00FF9002240215C4801F00AF9DCE077
:100DAC0001220121594801F004F90022022157487F
:100DBC0001F0FFF800220421544801F0FAF8012256
:100DCC000821524801F0F5F8012210214F4801F09A
:100DDC00F0F8002220214D4801F0EBF800224021D0
:100DEC004A4801F0E6F8B8E000220121474801F03A
:100DFC00E0F801220221454801F0DBF80022042131
:100E0C00424801F0D6F800220821404801F0D1F800
:100E1C00012210213D4801F0CCF8002220213B4852
:100E2C0001F0C7F800224021384801F0C2F894E0E4
:100E3C0000220121354801F0BCF80122022133487F
:100E4C0001F0B7F800220421304801F0B2F800227A
:100E5C0008212E4801F0ADF8002210212B4801F09A
:100E6C00A8F800222021294801F0A3F800224021F3
:100E7C00264801F09EF870E000220121234801F081
:100E8C0098F800220221214801F093F80022042155
:100E9C001E4801F08EF8012208211C4801F089F847
:100EAC0001221021194801F084F801222021174851
:100EBC0001F07FF801224021144801F07AF84CE04F
:100ECC0000220121114801F074F8002202210F4880
:100EDC0001F06FF8002204210C4801F06AF800229E
:100EEC0008210A4801F065F800221021074801F09A
:100EFC0060F800222021054801F05BF80022402117
:100F0C00024801F056F828E000080140000C0140AE
:100F1C0000220121134801F04CF800220221114853
:100F2C0001F047F8002204210E4801F042F800229B
:100F3C0008210C4801F03DF801221021094801F06C
:100F4C0038F800222021074801F033F80022402114
:100F5C00044801F02EF800E000BF00BF0837BD4682
:100F6C0080BD00BF000C014080B582B000AF78603E
:100F7C0039603B68002B14D100220221C84801F0D3
:100F8C0018F801220421C64801F013F800220821A8
:100F9C00C34801F00EF801221021C14801F009F8F4
:100FAC0013E001220221BE4801F003F800220421C3
:100FBC00BB4800F0FEFF01220821B94800F0F9FF00
:100FCC0000221021B64800F0F4FF7B68092B00F2D8
:100FDC00BF8101A252F823F00D1000086110000827
:100FEC00B5100008091100085D110008B1110008C6
:100FFC000512000859120008B51200080913000860
:10100C0000228021A74800F0D4FF00224FF4807109
:10101C00A44800F0CEFF00224FF40071A14800F06C
:10102C00C8FF00224FF480619E4800F0C2FF0022EE
:10103C004FF400619B4800F0BCFF00224FF480513C
:10104C00984800F0B6FF01224FF40051954800F08B
:10105C00B0FF7EE101228021924800F0AAFF00221D
:10106C004FF480718F4800F0A4FF00224FF4007100
:10107C008C4800F09EFF01224FF48061894800F0FB
:10108C0098FF01224FF40061864800F092FF012284
:10109C004FF48051834800F08CFF01224FF4005133
:1010AC00804800F086FF54E1002280217D4800F04A
:1010BC0080FF00224FF480717A4800F07AFF012201
:1010CC004FF40071774800F074FF00224FF48061F8
:1010DC00744800F06EFF00224FF40061714800F07C
:1010EC0068FF01224FF480516E4800F062FF00222D
:1010FC004FF400516B4800F05CFF2AE10022802184
:10110C00684800F056FF00224FF48071654800F0EB
:10111C0050FF00224FF40071624800F04AFF002299
:10112C004FF480615F4800F044FF01224FF40061EE
:10113C005C4800F03EFF01224FF48051594800F00A
:10114C0038FF00224FF40051564800F032FF00E106
:10115C0001228021534800F02CFF00224FF48071B3
:10116C00504800F026FF00224FF400714D4800F06B
:10117C0020FF01224FF480614A4800F01AFF01223F
:10118C004FF40061474800F014FF00224FF48051E7
:10119C00444800F00EFF00224FF40051414800F08B
:1011AC0008FFD6E0002280213E4800F002FF012219
:1011BC004FF480713B4800F0FCFE00224FF40071AC
:1011CC00384800F0F6FE00224FF48061354800F0FC
:1011DC00F0FE01224FF40061324800F0EAFE0022DA
:1011EC004FF480512F4800F0E4FE00224FF40051E0
:1011FC002C4800F0DEFEACE000228021294800F0F3
:10120C00D8FE01224FF48071264800F0D2FE002255
:10121C004FF40071234800F0CCFE00224FF48061A3
:10122C00204800F0C6FE00224FF400611D4800F07B
:10123C00C0FE00224FF480511A4800F0BAFE002282
:10124C004FF40051174800F0B4FE82E000228021D8
:10125C00144800F0AEFE00224FF48071114800F0EB
:10126C00A8FE00224FF400710E4800F0A2FE0122ED
:10127C004FF480610B4800F09CFE01224FF400619A
:10128C00084800F096FE01224FF48051054800F00A
:10129C0090FE01224FF40051024800F08AFE58E003
:1012AC0000080140000C0140002280212B4800F076
:1012BC0080FE00224FF48071284800F07AFE002254
:1012CC004FF40071254800F074FE00224FF4806149
:1012DC00224800F06EFE00224FF400611F4800F01F
:1012EC0068FE00224FF480511C4800F062FE002280
:1012FC004FF40051194800F05CFE2AE000228021D6
:10130C00164800F056FE00224FF48071134800F08E
:10131C0050FE00224FF40071104800F04AFE0022EB
:10132C004FF480610D4800F044FE01224FF400613F
:10133C000A4800F03EFE00224FF48051074800F0AE
:10134C0038FE00224FF40051044800F032FE00E059
:10135C0000BF00BF0837BD4680BD00BF000C014078
:10136C0080B500AF00F024FB00F024F800F0AAF8E0
:10137C0000F05CF80A4801F061FA0A4B01221A608D
:10138C00094B05221A60094B03221A60084B0222F2
:10139C001A60FEF7B3FFFFF747FBFFF711FCF8E706
:1013AC00C000002074000020BC000020B800002009
:1013BC00B400002080B590B000AF07F118032822CC
:1013CC000021184601F0EAFD3B1D00221A605A600C
:1013DC009A60DA601A610223BB610123BB6210239D
:1013EC00FB6200237B6307F11803184600F0FAFD3B
:1013FC000346002B01D000F0D5F80F237B600023AF
:10140C00BB600023FB6000233B6100237B613B1D21
:10141C000021184601F066F80346002B01D000F0BD
:10142C00C1F800BF4037BD4680BD000080B586B016
:10143C0000AF07F1080300221A605A609A60DA6064
:10144C003B4600221A605A601D4B4FF080421A60D6
:10145C001B4B41F63F725A60194B00229A60184B95
:10146C000922DA60164B00221A61154B00229A6190
:10147C00134801F093F90346002B01D000F092F8C9
:10148C004FF48053BB6007F1080319460C4801F078
:10149C0011FB0346002B01D000F084F800233B60C5
:1014AC0000237B603B461946054801F0E9FC0346E6
:1014BC00002B01D000F076F800BF1837BD4680BD78
:1014CC00C000002080B586B000AF07F108030022F1
:1014DC001A605A609A60DA60294B9B69284A43F07B
:1014EC0004039361264B9B6903F004037B607B68C8
:1014FC00234B9B69224A43F008039361204B9B6961
:10150C0003F008033B603B68002240F6FE711D4867
:10151C0000F04FFD002243F6FF711B4800F049FD1F
:10152C0040F6FE73BB600123FB6000233B6102238A
:10153C007B6107F108031946124800F0A9FB43F63A
:10154C00FF73BB600123FB6000233B6102237B61C3
:10155C0007F1080319460C4800F09AFB4FF460435E
:10156C00BB600023FB6001233B6107F108031946B4
:10157C00044800F08DFB00BF1837BD4680BD00BF8E
:10158C000010024000080140000C014080B582B000
:10159C0000AF786000F05AF8FEF718FE00BF08376D
:1015AC00BD4680BD80B400AF72B600BFFEE7000040
:1015BC0080B483B000AF7860074B1B687A6892FBED
:1015CC00F3F3064A1360064B00221A6000BF0C3777
:1015DC00BD4680BC704700BF400000203400002096
:1015EC007800002080B483B000AF7860074B1B6894
:1015FC007A6892FBF3F3064A1360064B00221A60DA
:10160C0000BF0C37BD4680BC704700BF40000020B7
:10161C00380000207C00002080B483B000AF7860DC
:10162C00074B1B687A6892FBF3F3064A1360064B70
:10163C0000221A6000BF0C37BD4680BC704700BF4B
:10164C00400000203C0000208000002080B400AF4F
:10165C00134B1B68002B02D1124B01221A60124B48
:10166C001B68002B02D1114B01221A60104B1B6816
:10167C00002B02D10F4B01221A60094B1B68013B56
:10168C00074A1360084B1B68013B074A1360084B61
:10169C001B68013B064A136000BFBD4680BC704707
:1016AC003400002078000020380000207C0000204E
:1016BC003C0000208000002080B485B000AF154BAA
:1016CC009B69144A43F001039361124B9B6903F02D
:1016DC000103BB60BB680F4BDB690E4A43F08053C0
:1016EC00D3610C4BDB6903F080537B607B680A4B46
:1016FC005B68FB60FB6823F0E063FB60FB6843F016
:10170C008063FB60044AFB68536000BF1437BD461E
:10171C0080BC7047001002400000014080B584B0CE
:10172C0000AF78607B681B68B3F1804F13D10C4B12
:10173C00DB690B4A43F00103D361094BDB6903F00E
:10174C000103FB60FB68002200211C2000F069FAF9
:10175C001C2000F082FA00BF1037BD4680BD00BFD0
:10176C000010024080B400AFFEE780B400AFFEE78B
:10177C0080B400AFFEE780B400AFFEE780B400AFEA
:10178C00FEE780B400AF00BFBD4680BC704780B49C
:10179C0000AF00BFBD4680BC704780B400AF00BF37
:1017AC00BD4680BC704780B500AF00F047F900BF64
:1017BC0080BD000080B500AF024801F08BF800BF7F
:1017CC0080BD00BFC000002080B400AF00BFBD468C
:1017DC0080BC704780B500AF00224021104800F05B
:1017EC00E8FB002280210E4800F0E3FB00224FF4BE
:1017FC0080710B4800F0DDFB00224FF400710848AB
:10180C0000F0D7FB00224FF48061054800F0D1FBBB
:10181C0000224FF40061024800F0CBFB00BF80BDFA
:10182C000008014080B500AF00224021104800F0B4
:10183C00C0FB002280210E4800F0BBFB01224FF4BC
:10184C0080710B4800F0B5FB00224FF40071084882
:10185C0000F0AFFB00224FF48061054800F0A9FBBB
:10186C0001224FF40061024800F0A3FB00BF80BDD1
:10187C000008014080B500AF00224021104800F064
:10188C0098FB002280210E4800F093FB01224FF4BC
:10189C0080710B4800F08DFB00224FF4007108485A
:1018AC0000F087FB01224FF48061054800F081FBBA
:1018BC0000224FF40061024800F07BFB00BF80BDAA
:1018CC000008014080B500AF01224021104800F013
:1018DC0070FB002280210E4800F06BFB00224FF4BD
:1018EC0080710B4800F065FB01224FF40071084831
:1018FC0000F05FFB00224FF48061054800F059FBBB
:10190C0000224FF40061024800F053FB00BF80BD81
:10191C000008014080B500AF00224021104800F0C3
:10192C0048FB012280210E4800F043FB00224FF4BB
:10193C0080710B4800F03DFB01224FF40071084808
:10194C0000F037FB00224FF48061054800F031FBBA
:10195C0000224FF40061024800F02BFB00BF80BD59
:10196C0000080140FFF730FF0B480C490C4A0023DC
:10197C0002E0D458C4500433C4188C42F9D3094A39
:10198C00094C002301E013600432A242FBD301F0A6
:10199C00E1FAFFF7E5FC7047000000205000002042
:1019AC00FC2F0008500000200C010020FEE7000076
:1019BC0080B500AF084B1B68074A43F01003136057
:1019CC00032000F023F90F2000F008F8FFF774FE55
:1019DC000023184680BD00BF0020024080B582B0B5
:1019EC0000AF7860124B1A68124B1B7819464FF4F3
:1019FC007A73B3FBF1F3B2FBF3F3184600F03BF947
:101A0C000346002B01D001230EE07B680F2B0AD874
:101A1C00002279684FF0FF3000F003F9064A7B682A
:101A2C001360002300E0012318460837BD4680BD33
:101A3C00440000204C0000204800002080B400AF7F
:101A4C00054B1B781A46054B1B681344034A13605D
:101A5C0000BFBD4680BC70474C0000200801002030
:101A6C0080B400AF024B1B681846BD4680BC704763
:101A7C000801002080B485B000AF78607B6803F06B
:101A8C000703FB600C4BDB68BB60BA684FF6FF03C7
:101A9C001340BB60FB681A02BB68134343F0BF637F
:101AAC0043F40033BB60044ABB68D36000BF1437F7
:101ABC00BD4680BC704700BF00ED00E080B400AFB5
:101ACC00044BDB681B0A03F007031846BD4680BCB9
:101ADC00704700BF00ED00E080B483B000AF034658
:101AEC00FB7197F90730002B0BDBFB7903F01F021E
:101AFC00064997F907305B09012000FA02F241F818
:101B0C00232000BF0C37BD4680BC704700E100E0CD
:101B1C0080B483B000AF03463960FB7197F907308E
:101B2C00002B0ADB3B68DAB20C4997F9073012013B
:101B3C00D2B20B4483F800230AE03B68DAB20849BE
:101B4C00FB7903F00F03043B1201D2B20B441A765B
:101B5C0000BF0C37BD4680BC704700BF00E100E001
:101B6C0000ED00E080B489B000AFF860B9607A6035
:101B7C00FB6803F00703FB61FB69C3F10703042B4C
:101B8C0028BF0423BB61FB690433062B02D9FB6914
:101B9C00033B00E000237B614FF0FF32BB6902FA8C
:101BAC0003F3DA43BB681A407B699A404FF0FF316C
:101BBC007B6901FA03F3D9437B680B401343184646
:101BCC002437BD4680BC704780B582B000AF7860CA
:101BDC007B68013BB3F1807F01D301230FE00A4AFC
:101BEC007B68013B53600F214FF0FF30FFF790FFF4
:101BFC00054B00229A60044B07221A6000231846FA
:101C0C000837BD4680BD00BF10E000E080B582B053
:101C1C0000AF78607868FFF72DFF00BF0837BD462E
:101C2C0080BD80B586B000AF0346B9607A60FB73A7
:101C3C0000237B61FFF742FF78617A68B9687869A5
:101C4C00FFF790FF024697F90F3011461846FFF741
:101C5C005FFF00BF1837BD4680BD80B582B000AFB6
:101C6C000346FB7197F907301846FFF735FF00BFA5
:101C7C000837BD4680BD80B582B000AF786078680B
:101C8C00FFF7A2FF034618460837BD4680BD00008B
:101C9C0080B48BB000AF7860396000237B62002386
:101CAC003B6248E101227B6A02FA03F3FB613B6869
:101CBC001B68FA691340BB61BA69FB699A4240F030
:101CCC0037813B685B68A34A93425ED0A14A93423A
:101CDC0075D8A14A934258D09F4A93426FD89F4AD5
:101CEC00934252D09D4A934269D89D4A93424CD01C
:101CFC009B4A934263D89B4A934246D0994A93425B
:101D0C005DD8122B2AD8122B59D801A252F823F0E5
:101D1C00971D0008711D0008831D0008C51D0008D3
:101D2C00CB1D0008CB1D0008CB1D0008CB1D0008E7
:101D3C00CB1D0008CB1D0008CB1D0008CB1D0008D7
:101D4C00CB1D0008CB1D0008CB1D0008CB1D0008C7
:101D5C00CB1D0008791D00088D1D0008824A934296
:101D6C0013D02CE03B68DB683B6229E03B68DB6806
:101D7C0004333B6224E03B68DB6808333B621FE0C2
:101D8C003B68DB680C333B621AE03B689B68002BBA
:101D9C0002D104233B6213E03B689B68012B05D105
:101DAC0008233B627B68FA691A6109E008233B62ED
:101DBC007B68FA695A6103E000233B6200E000BFD4
:101DCC00BB69FF2B01D87B6801E07B6804337B6126
:101DDC00BB69FF2B02D87B6A9B0002E07B6A083B45
:101DEC009B003B617B691A680F213B6901FA03F385
:101DFC00DB431A40396A3B6901FA03F31A437B69E6
:101E0C001A603B685B6803F08053002B00F09080F5
:101E1C00564B9B69554A43F001039361534B9B69A5
:101E2C0003F00103BB60BB68514A7B6A9B08023319
:101E3C0052F82330FB607B6A03F003039B000F22F4
:101E4C0002FA03F3DB43FA681340FB607B68494AF0
:101E5C0093420DD07B68484A934207D07B68474A2F
:101E6C00934201D1022304E0032302E0012300E0AA
:101E7C0000237A6A02F0030292009340FA6813433B
:101E8C00FB603B497B6A9B080233FA6841F82320CC
:101E9C003B685B6803F48013002B06D0384B9A68C0
:101EAC003749BB6913438B6006E0354B9A68BB69B5
:101EBC00DB43334913408B603B685B6803F40013CE
:101ECC00002B06D02E4BDA682D49BB691343CB602F
:101EDC0006E02B4BDA68BB69DB4329491340CB6026
:101EEC003B685B6803F40033002B06D0244B5A6824
:101EFC002349BB6913434B6006E0214B5A68BB690D
:101F0C00DB431F4913404B603B685B6803F4803331
:101F1C00002B06D01A4B1A681949BB6913430B6086
:101F2C0006E0174B1A68BB69DB43154913400B607D
:101F3C007B6A01337B623B681A687B6A22FA03F383
:101F4C00002B7FF4AFAE00BF00BF2C37BD4680BC6A
:101F5C00704700BF0000321000003110000022104A
:101F6C00000021100000121000001110001002409F
:101F7C000000014000080140000C0140001001402D
:101F8C000004014080B485B000AF78600B467B80C4
:101F9C007B689A687B881340002B02D00123FB736B
:101FAC0001E00023FB73FB7B18461437BD4680BC55
:101FBC00704780B483B000AF78600B467B801346CB
:101FCC007B707B78002B03D07A887B681A6103E0E6
:101FDC007B881A047B681A6100BF0C37BD4680BC35
:101FEC007047000080B586B000AF78607B68002B2E
:101FFC0001D101236CE27B681B6803F00103002B09
:10200C0000F08780924B5B6803F00C03042B0CD020
:10201C008F4B5B6803F00C03082B12D18C4B5B6865
:10202C0003F48033B3F5803F0BD1894B1B6803F469
:10203C000033002B6CD07B685B68002B68D10123CC
:10204C0046E27B685B68B3F5803F06D1804B1B682A
:10205C007F4A43F4803313602EE07B685B68002B6F
:10206C000CD17B4B1B687A4A23F480331360784B7A
:10207C001B68774A23F4802313601DE07B685B6840
:10208C00B3F5A02F0CD1724B1B68714A43F480231B
:10209C0013606F4B1B686E4A43F4803313600BE084
:1020AC006B4B1B686A4A23F480331360684B1B68C4
:1020BC00674A23F4802313607B685B68002B13D082
:1020CC00FFF7CEFC386108E0FFF7CAFC02463B691B
:1020DC00D31A642B01D90323FAE15D4B1B6803F47B
:1020EC000033002BF0D014E0FFF7BAFC386108E0A5
:1020FC00FFF7B6FC02463B69D31A642B01D90323C4
:10210C00E6E1534B1B6803F40033002BF0D100E0E5
:10211C0000BF7B681B6803F00203002B63D04C4BA1
:10212C005B6803F00C03002B0BD0494B5B6803F08E
:10213C000C03082B1CD1464B5B6803F48033002B3B
:10214C0016D1434B1B6803F00203002B05D07B68B0
:10215C001B69012B01D00123BAE13D4B1B6823F015
:10216C00F8027B685B69DB00394913430B603AE08A
:10217C007B681B69002B20D0364B01221A60FFF7BD
:10218C006FFC386108E0FFF76BFC02463B69D31A21
:10219C00022B01D903239BE12D4B1B6803F0020397
:1021AC00002BF0D02A4B1B6823F0F8027B685B698C
:1021BC00DB00274913430B6015E0264B00221A6005
:1021CC00FFF74EFC386108E0FFF74AFC02463B691A
:1021DC00D31A022B01D903237AE11D4B1B6803F0A0
:1021EC000203002BF0D17B681B6803F00803002B63
:1021FC003AD07B689B69002B19D0174B01221A60CF
:10220C00FFF72EFC386108E0FFF72AFC02463B6919
:10221C00D31A022B01D903235AE10D4B5B6A03F04D
:10222C000203002BF0D0012000F09AFA1CE00A4BBC
:10223C0000221A60FFF714FC38610FE0FFF710FC66
:10224C0002463B69D31A022B08D9032340E100BF95
:10225C000010024000004242800442429E4B5B6AE6
:10226C0003F00203002BE9D17B681B6803F0040325
:10227C00002B00F0A6800023FB75974BDB6903F065
:10228C008053002B0DD1944BDB69934A43F0805360
:10229C00D361914BDB6903F08053BB60BB680123B6
:1022AC00FB758E4B1B6803F48073002B18D18B4B82
:1022BC001B688A4A43F480731360FFF7D1FB3861C3
:1022CC0008E0FFF7CDFB02463B69D31A642B01D91A
:1022DC000323FDE0814B1B6803F48073002BF0D0CB
:1022EC007B68DB68012B06D17B4B1B6A7A4A43F077
:1022FC00010313622DE07B68DB68002B0CD1764B5D
:10230C001B6A754A23F001031362734B1B6A724AF2
:10231C0023F0040313621CE07B68DB68052B0CD1F3
:10232C006D4B1B6A6C4A43F0040313626A4B1B6AC5
:10233C00694A43F0010313620BE0674B1B6A664A60
:10234C0023F001031362644B1B6A634A23F00403FA
:10235C0013627B68DB68002B15D0FFF781FB3861BB
:10236C000AE0FFF77DFB02463B69D31A41F2883243
:10237C00934201D90323ABE0574B1B6A03F00203D2
:10238C00002BEED014E0FFF76BFB38610AE0FFF78F
:10239C0067FB02463B69D31A41F28832934201D95A
:1023AC00032395E04C4B1B6A03F00203002BEED188
:1023BC00FB7D012B05D1484BDB69474A23F0805349
:1023CC00D3617B68DB69002B00F08180424B5B683A
:1023DC0003F00C03082B61D07B68DB69022B46D120
:1023EC003F4B00221A60FFF73BFB386108E0FFF718
:1023FC0037FB02463B69D31A022B01D9032367E052
:10240C00354B1B6803F00073002BF0D17B681B6A03
:10241C00B3F5803F08D1304B5B6823F400327B6806
:10242C009B682D4913434B602B4B5B6823F4741250
:10243C007B68196A7B685B6A0B43274913434B60C3
:10244C00274B01221A60FFF70BFB386108E0FFF7FE
:10245C0007FB02463B69D31A022B01D9032337E051
:10246C001D4B1B6803F00073002BF0D02FE01C4BAE
:10247C0000221A60FFF7F4FA386108E0FFF7F0FA6F
:10248C0002463B69D31A022B01D9032320E0124BDD
:10249C001B6803F00073002BF0D118E07B68DB693C
:1024AC00012B01D1012313E00B4B5B68FB60FB6834
:1024BC0003F480327B681B6A9A4206D1FB6803F4F2
:1024CC0070127B685B6A9A4201D0012300E0002302
:1024DC0018461837BD4680BD001002400070004001
:1024EC006000424280B584B000AF786039607B6890
:1024FC00002B01D10123D0E06A4B1B6803F00703CA
:10250C003A689A4210D9674B1B6823F00702654959
:10251C003B6813430B60634B1B6803F007033A687B
:10252C009A4201D00123B8E07B681B6803F00203D8
:10253C00002B20D07B681B6803F00403002B05D014
:10254C00594B5B68584A43F4E06353607B681B68E3
:10255C0003F00803002B05D0534B5B68524A43F43D
:10256C0060535360504B5B6823F0F0027B689B68B0
:10257C004D4913434B607B681B6803F00103002B30
:10258C0040D07B685B68012B07D1474B1B6803F479
:10259C000033002B15D101237FE07B685B68022B95
:1025AC0007D1414B1B6803F00073002B09D10123A9
:1025BC0073E03D4B1B6803F00203002B01D1012398
:1025CC006BE0394B5B6823F003027B685B68364930
:1025DC0013434B60FFF744FAF8600AE0FFF740FA48
:1025EC000246FB68D31A41F28832934201D9032385
:1025FC0053E02D4B5B6803F00C027B685B689B001F
:10260C009A42EBD1274B1B6803F007033A689A42B6
:10261C0010D2244B1B6823F0070222493B6813435A
:10262C000B60204B1B6803F007033A689A4201D0F9
:10263C00012332E07B681B6803F00403002B08D0F5
:10264C00194B5B6823F4E0627B68DB681649134323
:10265C004B607B681B6803F00803002B09D0124BFE
:10266C005B6823F460527B681B69DB000E491343E3
:10267C004B6000F021F802460B4B5B681B0903F022
:10268C000F030A49CB5C22FA03F3094A1360094B86
:10269C001B681846FFF7A2F9002318461037BD46F1
:1026AC0080BD00BF0020024000100240D02F000867
:1026BC00440000204800002080B487B000AF002305
:1026CC00FB600023BB6000237B6100237B60002345
:1026DC003B611E4B5B68FB60FB6803F00C03042B37
:1026EC0002D0082B03D027E0194B3B6127E0FB6895
:1026FC009B0C03F00F03174AD35C7B60FB6803F45D
:10270C008033002B10D0114B5B685B0C03F0010382
:10271C00114AD35CBB607B680D4A02FB03F2BB68B9
:10272C00B2FBF3F37B6104E07B680C4A02FB03F31E
:10273C007B617B693B6102E0054B3B6100BF3B6900
:10274C0018461C37BD4680BC704700BF00100240C5
:10275C0000127A00E02F0008F02F000800093D005D
:10276C0080B485B000AF78600A4B1B680A4AA2FBA4
:10277C0003235B0A7A6802FB03F3FB6000BFFB6870
:10278C005A1EFA60002BF9D100BF00BF1437BD46AA
:10279C0080BC704744000020D34D621080B582B0DD
:1027AC0000AF78607B68002B01D1012341E07B688E
:1027BC0093F83D30DBB2002B06D17B68002283F806
:1027CC003C207868FEF7AAFF7B68022283F83D2044
:1027DC007B681A687B6804331946104600F056FA79
:1027EC007B68012283F846207B68012283F83E2017
:1027FC007B68012283F83F207B68012283F840200C
:10280C007B68012283F841207B68012283F84220F7
:10281C007B68012283F843207B68012283F84420E3
:10282C007B68012283F845207B68012283F83D20D8
:10283C00002318460837BD4680BD000080B485B023
:10284C0000AF78607B6893F83D30DBB2012B01D090
:10285C00012335E07B68022283F83D207B681B68EE
:10286C00DA687B681B6842F00102DA607B681B68DF
:10287C00164A934209D07B681B68B3F1804F04D091
:10288C007B681B68124A934211D17B681B689B685A
:10289C0003F00703FB60FB68062B10D07B681B68FA
:1028AC001A687B681B6842F001021A6007E07B68BB
:1028BC001B681A687B681B6842F001021A600023CF
:1028CC0018461437BD4680BC704700BF002C014031
:1028DC000004004080B584B000AF78607B681B6852
:1028EC00DB68FB607B681B681B69BB60BB6803F023
:1028FC000203002B20D0FB6803F00203002B1BD03B
:10290C007B681B686FF002021A617B6801221A77E0
:10291C007B681B689B6903F00303002B03D078686A
:10292C0000F098F905E0786800F08BF9786800F011
:10293C009AF97B6800221A77BB6803F00403002B1A
:10294C0020D0FB6803F00403002B1BD07B681B68B2
:10295C006FF004021A617B6802221A777B681B688D
:10296C009B6903F44073002B03D0786800F072F974
:10297C0005E0786800F065F9786800F074F97B6818
:10298C0000221A77BB6803F00803002B20D0FB68E9
:10299C0003F00803002B1BD07B681B686FF0080248
:1029AC001A617B6804221A777B681B68DB6903F069
:1029BC000303002B03D0786800F04CF905E078682D
:1029CC0000F03FF9786800F04EF97B6800221A7726
:1029DC00BB6803F01003002B20D0FB6803F010033E
:1029EC00002B1BD07B681B686FF010021A617B6890
:1029FC0008221A777B681B68DB6903F44073002B91
:102A0C0003D0786800F026F905E0786800F019F931
:102A1C00786800F028F97B6800221A77BB6803F00D
:102A2C000103002B0CD0FB6803F00103002B07D033
:102A3C007B681B686FF001021A617868FEF7A6FDCF
:102A4C00BB6803F08003002B0CD0FB6803F0800301
:102A5C00002B07D07B681B686FF080021A617868C6
:102A6C0000F06FFABB6803F04003002B0CD0FB683E
:102A7C0003F04003002B07D07B681B686FF040020B
:102A8C001A61786800F0F8F8BB6803F02003002B9B
:102A9C000CD0FB6803F02003002B07D07B681B686D
:102AAC006FF020021A61786800F042FA00BF10370C
:102ABC00BD4680BD80B584B000AF7860396000231E
:102ACC00FB737B6893F83C30012B01D10223B4E0FB
:102ADC007B68012283F83C207B68022283F83D202E
:102AEC007B681B689B68BB60BB6823F07703BB608B
:102AFC00BB6823F47F43BB607B681B68BA689A6031
:102B0C003B681B68B3F5005F3ED0B3F5005F00F285
:102B1C008780B3F5805F00F08680B3F5805F7FD847
:102B2C00702B1AD0702B7BD8602B50D0602B77D8A1
:102B3C00502B3CD0502B73D8402B58D0402B6FD8F7
:102B4C00302B64D0302B6BD8202B60D0202B67D847
:102B5C00002B5CD0102B5AD062E07B6818683B6865
:102B6C0099683B685A683B68DB6800F06AF97B68D7
:102B7C001B689B68BB60BB6843F07703BB607B68DA
:102B8C001B68BA689A604FE07B6818683B68996864
:102B9C003B685A683B68DB6800F053F97B681B683C
:102BAC009A687B681B6842F480429A603CE07B68C0
:102BBC0018683B6859683B68DB681A4600F0CAF82D
:102BCC007B681B685021184600F021F92CE07B68CB
:102BDC0018683B6859683B68DB681A4600F0E8F8EF
:102BEC007B681B686021184600F011F91CE07B68BB
:102BFC0018683B6859683B68DB681A4600F0AAF80D
:102C0C007B681B684021184600F001F90CE07B68DA
:102C1C001A683B681B681946104600F0F8F803E088
:102C2C000123FB7300E000BF7B68012283F83D2089
:102C3C007B68002283F83C20FB7B18461037BD468E
:102C4C0080BD80B483B000AF786000BF0C37BD4648
:102C5C0080BC704780B483B000AF786000BF0C3785
:102C6C00BD4680BC704780B483B000AF786000BFB5
:102C7C000C37BD4680BC704780B483B000AF786021
:102C8C0000BF0C37BD4680BC7047000080B485B0D7
:102C9C0000AF786039607B681B68FB607B682B4AEF
:102CAC00934207D07B68B3F1804F03D07B68284AEE
:102CBC00934208D1FB6823F07003FB603B685B68B0
:102CCC00FA681343FB607B68204A934207D07B6809
:102CDC00B3F1804F03D07B681D4A934208D1FB6847
:102CEC0023F44073FB603B68DB68FA681343FB60BA
:102CFC00FB6823F080023B685B691343FB607B68D5
:102D0C00FA681A603B689A687B68DA623B681A68F2
:102D1C007B689A627B680D4A934203D13B681A69BF
:102D2C007B681A637B6801225A617B681B6903F01C
:102D3C000103002B05D07B681B6923F001027B6823
:102D4C001A6100BF1437BD4680BC7047002C01408F
:102D5C000004004080B487B000AFF860B9607A60BE
:102D6C00FB681B6A7B61FB681B6A23F00102FB6832
:102D7C001A62FB689B693B613B6923F0F0033B6182
:102D8C007B681B013A6913433B617B6923F00A039F
:102D9C007B617A69BB6813437B61FB683A699A6112
:102DAC00FB687A691A6200BF1C37BD4680BC70474D
:102DBC0080B487B000AFF860B9607A60FB681B6ABA
:102DCC007B61FB681B6A23F01002FB681A62FB68CC
:102DDC009B693B613B6923F470433B617B681B033C
:102DEC003A6913433B617B6923F0A0037B61BB68A9
:102DFC001B017A6913437B61FB683A699A61FB6832
:102E0C007A691A6200BF1C37BD4680BC704780B41B
:102E1C0085B000AF786039607B689B68FB60FB68AD
:102E2C0023F07003FB603A68FB68134343F007031D
:102E3C00FB607B68FA689A6000BF1437BD4680BCA3
:102E4C00704780B487B000AFF860B9607A603B60BF
:102E5C00FB689B687B617B6923F47F437B613B68E8
:102E6C001A027B681A43BB6813437A6913437B616C
:102E7C00FB687A699A6000BF1C37BD4680BC7047FE
:102E8C0080B485B000AF786039607B6893F83C30D3
:102E9C00012B01D1022341E07B68012283F83C2005
:102EAC007B68022283F83D207B681B685B68FB60B3
:102EBC007B681B689B68BB60FB6823F07003FB603E
:102ECC003B681B68FA681343FB607B681B68FA68F5
:102EDC005A607B681B68144A934209D07B681B6854
:102EEC00B3F1804F04D07B681B68104A93420CD11D
:102EFC00BB6823F08003BB603B685B68BA68134314
:102F0C00BB607B681B68BA689A607B68012283F897
:102F1C003D207B68002283F83C20002318461437A0
:102F2C00BD4680BC704700BF002C0140000400402F
:102F3C0080B483B000AF786000BF0C37BD4680BC56
:102F4C00704780B483B000AF786000BF0C37BD46CB
:102F5C0080BC704770B500260C4D0D4C641BA41042
:102F6C00A64209D100F022F800260A4D0A4C641B37
:102F7C00A410A64205D170BD55F8043B9847013604
:102F8C00EEE755F8043B98470136F2E7F42F0008BA
:102F9C00F42F0008F42F0008F82F00080346024411
:102FAC00934200D1704703F8011BF9E7F8B500BF55
:102FBC00F8BC08BC9E467047F8B500BFF8BC08BC0E
:042FCC009E46704766
:102FD00000000000000000000102030406070809C9
:102FE00002030405060708090A0B0C0D0E0F10104A
:042FF00001020000DA
:042FF400310100089F
:042FF8000D010008BF
:102FFC0001000000010000000100000001000000C1
:10300C0001000000010000000100000001000000B0
:10301C0001000000010000000100000001000000A0
:10302C00C8000000010000000100000001000000C9
:10303C000A00000000127A001000000001000000DD
:040000050800197165
:00000001FF
