:020000040800F2
:1000000000280020351D0008351B00083B1B000898
:10001000411B0008471B00084D1B000800000000A2
:10002000000000000000000000000000531B00085A
:100030005F1B0008000000006B1B0008771B000816
:100040007D1D00087D1D00087D1D00087D1D000828
:100050007D1D00087D1D00087D1D00087D1D000818
:100060007D1D00087D1D00087D1D00087D1D000808
:100070007D1D00087D1D00087D1D00087D1D0008F8
:100080007D1D00087D1D00087D1D00087D1D0008E8
:100090007D1D00087D1D00087D1D00087D1D0008D8
:1000A0007D1D00087D1D00087D1D00087D1D0008C8
:1000B000851B00087D1D0008000000007D1D000854
:1000C0007D1D000800000000000000007D1D0008EC
:1000D000000000007D1D00087D1D000800000000DC
:1000E0007D1D00087D1D00087D1D0008000000002A
:1000F0000000000000000000000000000000000000
:0C01000000000000000000005FF808F1A3
:10010C0010B5054C237833B9044B13B10448AFF345
:10011C0000800123237010BD50000020000000005F
:10012C00AC33000808B5034B1BB103490348AFF3CC
:10013C00008008BD0000000054000020AC33000813
:10014C0080B400AF064B1B68012B04D1044B00227A
:10015C001A60012300E000231846BD4680BC70479E
:10016C008800002080B400AF064B5B68012B04D1E3
:10017C00044B00225A60012300E000231846BD46C0
:10018C0080BC70478800002080B400AF064B9B6891
:10019C00012B04D1044B00229A60012300E00023C0
:1001AC001846BD4680BC70478800002080B483B0E0
:1001BC0000AF7860044A7B68012142F8231000BF2D
:1001CC000C37BD4680BC70478800002080B582B0DB
:1001DC0000AF00237B6083E0464A7B6852F8232003
:1001EC0045497B6841F82320444A7B6852F8232018
:1001FC0040497B6841F823207B68002B0BD14FF4DE
:10020C0000513F4802F0A0F8034619463B4A7B6870
:10021C0042F8231019E07B68012B0BD14FF480417D
:10022C00374802F091F803461946344A7B6842F885
:10023C0023100AE04FF40041314802F085F80346E0
:10024C0019462E4A7B6842F823102A4A7B6852F8DA
:10025C0023202A497B6851F823309A423DD1254A04
:10026C007B6852F8232024497B6851F823309A424A
:10027C0033D1214A7B6852F8232022497B6851F8FC
:10028C0023309A4214D01C4A7B6852F823201D4913
:10029C007B6841F823201B4A7B6852F82330002BE3
:1002AC001BD17868FFF782FF174BC8221A6014E045
:1002BC00154B1B68013B144A1360134B1B68002B36
:1002CC000BD1104A7B6852F82330002B02D178688E
:1002DC00FFF76CFF0C4B32221A607B6801337B609A
:1002EC007B68022B7FF778AF00BF00BF0837BD4695
:1002FC0080BD00BF0C000020180000200000002072
:10030C0000080140240000203000002080B500AF20
:10031C0001F06AFC464B1B68012B17D1454B03229D
:10032C001A60454B1B684FF47A7202FB03F31846B4
:10033C0001F020FB414B01221A60414B1B68013B31
:10034C003F4A13604FF47A7001F048FB3B4B1B683B
:10035C00012B49D1FA2001F027FB3A4B1B68002BEB
:10036C0002D0012B1CD040E0354B1B68364A82FB77
:10037C0003129210DB17D31A0021184600F046FE28
:10038C00324B1B68304A82FB03129210DB17D31AD4
:10039C000021184600F07AFC2A4B01221A6024E056
:1003AC00274B1A68284B83FB02139910D317C81AD2
:1003BC0003469B0003445B00D01A012100F026FE8B
:1003CC00224B1A68204B83FB02139910D317C81ABF
:1003DC0003469B0003445B00D01A012100F056FC3D
:1003EC00184B00221A6000E000BF194B1B68012B50
:1003FC000DD14FF47A7001F0F1FA114B1B68013BEF
:10040C000F4A1360114B1B68013B104A1360FFF736
:10041C0097FE0346012B08D1064B0D221A6001F002
:10042C00BBFB42F2107001F0A5FA00BF80BD00BF0B
:10043C007C00002074000020AC0000208000002014
:10044C00A00000206C00002067666666A4000020F7
:10045C008400002080B500AF01F0EEFB4B4B1B6815
:10046C00012B1ED14A4B04221A604A4B1B684FF4D5
:10047C007A7202FB03F3184601F07CFA464B012218
:10048C001A604FF47A7001F0A9FA444B1B68444A85
:10049C001360404B1B68434A1360434B1B68434A31
:1004AC0013603D4B1B68012B49D1FA2001F07CFAFB
:1004BC003F4B1B68002B02D0012B1CD040E0384B6B
:1004CC001B683C4A82FB03129210DB17D31A0021E3
:1004DC00184600F09BFD354B1B68364A82FB031215
:1004EC009210DB17D31A0021184600F0CFFB304BCB
:1004FC0001221A6024E02A4B1A682E4B83FB02134C
:10050C009910D317C81A03469B0003445B00D01AFA
:10051C00012100F07BFD254B1A68264B83FB02134F
:10052C009910D317C81A03469B0003445B00D01ADA
:10053C00012100F0ABFB1E4B00221A6000E000BF53
:10054C001D4B1B68012B10D14FF47A7001F046FA49
:10055C00114B01221A60124B1B68013B104A1360AD
:10056C00124B1B68013B114A1360FFF7E9FD034670
:10057C00012B08D1064B0D221A6001F00DFB42F243
:10058C00107001F0F7F900BF80BD00BF7C000020A7
:10059C0074000020B000002080000020B400002077
:1005AC00A0000020A4000020AC000020A800002027
:1005BC006C000020676666668400002080B500AF82
:1005CC0001F062FB444B1B68012B14D1434B0522F9
:1005DC001A60434B1B684FF47A7202FB03F3184604
:1005EC0001F0C8F93F4B1B68013B3E4A13604FF4C6
:1005FC007A7001F0F3F93C4B1B68012B49D1FA20BE
:10060C0001F0D2F9394B1B68002B02D0012B1CD006
:10061C0040E0374B1B68374A82FB03129210DB1702
:10062C00D31A0021184600F0F1FC2E4B1B68314AFE
:10063C0082FB03129210DB17D31A0021184600F02C
:10064C0025FB2A4B01221A6024E0294B1A68294BFE
:10065C0083FB02139910D317C81A03469B0003445B
:10066C005B00D01A012100F0D1FC1E4B1A68214B03
:10067C0083FB02139910D317C81A03469B0003443B
:10068C005B00D01A012100F001FB184B00221A600C
:10069C0000E000BF184B1B68012B0DD14FF47A7092
:1006AC0001F09CF90F4B1B68013B0E4A1360104B79
:1006BC001B68013B0E4A1360FFF742FD0346012BFA
:1006CC0008D1064B0D221A6001F066FA42F2107046
:1006DC0001F050F900BF80BD7C00002074000020A8
:1006EC00AC000020A0000020800000206C00002046
:1006FC00A4000020676666668400002080B500AF09
:10070C0001F0EAFA494B1B68012B1ED1484B02221F
:10071C001A60484B1B684FF47A7202FB03F31846BD
:10072C0001F028F9444B01221A604FF47A7001F061
:10073C0055F9424B1B68424A13603E4B1B68414AB9
:10074C001360414B1B68414A13603B4B1B68012BE8
:10075C0049D1FA2001F028F93D4B1B68002B02D03F
:10076C00012B1CD040E0364B1B683A4A82FB03122B
:10077C009210DB17D31A0021184600F047FC334BBC
:10078C001B68344A82FB03129210DB17D31A002128
:10079C00184600F07BFA2E4B01221A6024E0284BFD
:1007AC001A682C4B83FB02139910D317C81A0346F3
:1007BC009B0003445B00D01A012100F027FC234B63
:1007CC001A68244B83FB02139910D317C81A0346DB
:1007DC009B0003445B00D01A012100F057FA1C4B1C
:1007EC0000221A6000E000BF1B4B1B68012B0DD1CF
:1007FC004FF47A7001F0F2F8114B1B68013B104A70
:10080C001360124B1B68013B104A1360FFF798FCF6
:10081C000346012B08D1064B0D221A6001F0BCF9DE
:10082C0042F2107001F0A6F800BF80BD7C000020E1
:10083C0074000020B000002080000020B4000020D4
:10084C00A0000020A4000020AC000020A800002084
:10085C006C000020676666668400002080B500AFDF
:10086C001F4B1B68013B042B37D801A252F823F015
:10087C0091080008CF080008D5080008DB0800081C
:10088C00E1080008164B02221A6001F085F9154B9D
:10089C001B684FF47A7202FB03F3184601F06AF8F6
:1008AC004FF47A7001F09AF80F4B1B680F4A1360E3
:1008BC000F4B1B680F4A13600A4B1B680E4A1360E0
:1008CC000CE0FFF723FD09E0FFF7C4FD06E0FFF79E
:1008DC0075FE03E0FFF712FF00E000BF00BF80BD14
:1008EC0074000020B0000020B4000020A000002004
:1008FC00AC000020A8000020A400002080B500AFB0
:10090C00244B1B68012B08D14FF4FA7001F066F8E8
:10091C004FF44071204801F046FD204B1B68012B21
:10092C0035D1FA2001F040F81D4B1B68002B02D08A
:10093C00012B14D02CE01B4B1B681B4A82FB0312AF
:10094C009210DB17D31A0021184600F05FFB002130
:10095C00002000F09BF9124B01221A6018E0114B99
:10096C001A68114B83FB02139910D317C81A03464C
:10097C009B0003445B00D01A012100F047FB0121CE
:10098C00022000F083F9064B00221A6000E000BF41
:10099C0000BF80BD840000200008014080000020C2
:1009AC0070000020B40000206766666680B500AF5A
:1009BC00244B1B68012B08D14FF4FA7001F00EF890
:1009CC004FF49061204801F0EEFC204B1B68012B8A
:1009DC0035D1FA2000F0E8FF1D4B1B68002B02D02C
:1009EC00012B14D02CE01B4B1B681B4A82FB0312FF
:1009FC009210DB17D31A0021184600F007FB0021D8
:100A0C00002000F043F9124B01221A6018E0114B40
:100A1C001A68114B83FB02139910D317C81A03469B
:100A2C009B0003445B00D01A012100F0EFFA012176
:100A3C00032000F02BF9064B00221A6000E000BFE7
:100A4C0000BF80BD84000020000801408000002011
:100A5C0070000020AC0000206766666680B500AFB1
:100A6C00244B1B68012B08D14FF4FA7000F0B6FF31
:100A7C004FF40461204801F096FC204B1B68012BBD
:100A8C0035D1FA2000F090FF1D4B1B68002B02D0D3
:100A9C00012B14D02CE01B4B1B681B4A82FB03124E
:100AAC009210DB17D31A0021184600F0AFFA002180
:100ABC00002000F0EBF8124B01221A6018E0114BE9
:100ACC001A68114B83FB02139910D317C81A0346EB
:100ADC009B0003445B00D01A012100F097FA01211E
:100AEC00042000F0D3F8064B00221A6000E000BF8F
:100AFC0000BF80BD84000020000801408000002061
:100B0C0070000020B00000206766666680B500AFFC
:100B1C004F4B1B680F2B63D00F2B00F38F800D2BCB
:100B2C0002D00E2B2ED089E0FFF7E8FE494B1B6854
:100B3C00012B02D1464B01221A60FFF701FB034641
:100B4C00012B08D142F2107000F014FF01F024F8D0
:100B5C003F4B0E221A60FFF705FB0346012B08D111
:100B6C0042F2107000F006FF3B4B1B6801333A4A0F
:100B7C001360FFF709FB0346012B61D1344B0122B3
:100B8C001A605DE0FFF712FF324B1B68012B02D19C
:100B9C002F4B01221A60FFF7D3FA0346012B08D121
:100BAC0042F2107000F0E6FE00F0F6FF284B0F2228
:100BBC001A60FFF7D7FA0346012B08D142F21070E6
:100BCC0000F0D8FE254B1B680133244A1360FFF755
:100BDC00DBFA0346012B35D11D4B01221A6031E0A3
:100BEC00FFF73CFF1B4B1B68012B02D1184B01225A
:100BFC001A60FFF7A5FA0346012B08D142F21070D8
:100C0C0000F0B8FE00F0C8FF114B0C221A60FFF781
:100C1C00A9FA0346012B08D142F2107000F0AAFE8B
:100C2C000F4B1B6801330E4A1360FFF7ADFA0346F6
:100C3C00012B09D1064B01221A6005E000BF04E02C
:100C4C0000BF02E000BF00E000BF00BF80BD00BFDE
:100C5C00740000207C000020B4000020AC000020B8
:100C6C00B000002080B400AF054B1A68054B1B6820
:100C7C001344054A136000BFBD4680BC704700BFDB
:100C8C00B0000020AC000020B400002080B582B081
:100C9C0000AF786039603B68002B14D10022022130
:100CAC00C24801F068FB01220421C04801F063FB3B
:100CBC0000220821BD4801F05EFB01221021BB4837
:100CCC0001F059FB13E001220221B84801F053FB5B
:100CDC0000220421B54801F04EFB01220821B34843
:100CEC0001F049FB00221021B04801F044FB7B6865
:100CFC00092B00F2838101A252F823F0310D000878
:100D0C00790D0008C10D0008090E0008510E0008ED
:100D1C00990E0008E10E0008290F0008710F000859
:100D2C00C10F000800220121A14801F024FB002280
:100D3C0002219F4801F01FFB002204219C4801F076
:100D4C001AFB002208219A4801F015FB0022102101
:100D5C00974801F010FB00222021954801F00BFB75
:100D6C0001224021924801F006FB48E101220121B9
:100D7C008F4801F000FB002202218D4801F0FBFAA4
:100D8C00002204218A4801F0F6FA01220821884841
:100D9C0001F0F1FA01221021854801F0ECFA012250
:100DAC002021834801F0E7FA01224021804801F01C
:100DBC00E2FA24E1002201217D4801F0DCFA002254
:100DCC0002217B4801F0D7FA01220421784801F076
:100DDC00D2FA00220821764801F0CDFA0022102127
:100DEC00734801F0C8FA01222021714801F0C3FABE
:100DFC00002240216E4801F0BEFA00E100220121E0
:100E0C006B4801F0B8FA00220221694801F0B3FAEC
:100E1C0000220421664801F0AEFA00220821644841
:100E2C0001F0A9FA01221021614801F0A4FA012273
:100E3C0020215F4801F09FFA002240215C4801F01C
:100E4C009AFADCE001220121594801F094FA0022BF
:100E5C000221574801F08FFA00220421544801F076
:100E6C008AFA01220821524801F085FA0122102148
:100E7C004F4801F080FA002220214D4801F07BFA06
:100E8C00002240214A4801F076FAB8E00022012104
:100E9C00474801F070FA01220221454801F06BFA33
:100EAC0000220421424801F066FA00220821404841
:100EBC0001F061FA012210213D4801F05CFA002298
:100ECC0020213B4801F057FA00224021384801F01C
:100EDC0052FA94E000220121354801F04CFA01222B
:100EEC000221334801F047FA00220421304801F076
:100EFC0042FA002208212E4801F03DFA002210216E
:100F0C002B4801F038FA00222021294801F033FA4D
:100F1C0000224021264801F02EFA70E00022012127
:100F2C00234801F028FA00220221214801F023FA7B
:100F3C00002204211E4801F01EFA012208211C483F
:100F4C0001F019FA01221021194801F014FA0122BA
:100F5C002021174801F00FFA01224021144801F01A
:100F6C000AFA4CE000220121114801F004FA002297
:100F7C0002210F4801F0FFF9002204210C4801F076
:100F8C00FAF9002208210A4801F0F5F90022102193
:100F9C00074801F0F0F900222021054801F0EBF997
:100FAC0000224021024801F0E6F928E00008014047
:100FBC00000C014000220121134801F0DCF9002251
:100FCC000221114801F0D7F9002204210E4801F04A
:100FDC00D2F9002208210C4801F0CDF90122102190
:100FEC00094801F0C8F900222021074801F0C3F993
:100FFC0000224021044801F0BEF900E000BF00BF10
:10100C000837BD4680BD00BF000C014080B582B0E2
:10101C0000AF786039603B68002B14D100220221AC
:10102C00C84801F0A8F901220421C64801F0A3F92F
:10103C0000220821C34801F09EF901221021C14869
:10104C0001F099F913E001220221BE4801F093F955
:10105C0000220421BB4801F08EF901220821B94875
:10106C0001F089F900221021B64801F084F97B685F
:10107C00092B00F2BF8101A252F823F0B110000835
:10108C000511000859110008AD11000801120008E3
:10109C0055120008A9120008FD1200085913000887
:1010AC00AD13000800228021A74801F064F900224A
:1010BC004FF48071A44801F05EF900224FF40071E6
:1010CC00A14801F058F900224FF480619E4801F0CC
:1010DC0052F900224FF400619B4801F04CF90022B8
:1010EC004FF48051984801F046F901224FF4005119
:1010FC00954801F040F97EE101228021924801F0EF
:10110C003AF900224FF480718F4801F034F9002233
:10111C004FF400718C4801F02EF901224FF48061DC
:10112C00894801F028F901224FF40061864801F04A
:10113C0022F901224FF48051834801F01CF901225D
:10114C004FF40051804801F016F954E1002280213F
:10115C007D4801F010F900224FF480717A4801F0BB
:10116C000AF901224FF40071774801F004F90022CA
:10117C004FF48061744801F0FEF800224FF40061D6
:10118C00714801F0F8F801224FF480516E4801F0DB
:10119C00F2F800224FF400516B4801F0ECF82AE110
:1011AC0000228021684801F0E6F800224FF480719B
:1011BC00654801F0E0F800224FF40071624801F03C
:1011CC00DAF800224FF480615F4801F0D4F8012274
:1011DC004FF400615C4801F0CEF801224FF48051CD
:1011EC00594801F0C8F800224FF40051564801F05C
:1011FC00C2F800E101228021534801F0BCF8002222
:10120C004FF48071504801F0B6F800224FF4007191
:10121C004D4801F0B0F801224FF480614A4801F0CA
:10122C00AAF801224FF40061474801F0A4F800220B
:10123C004FF48051444801F09EF800224FF40051C5
:10124C00414801F098F8D6E0002280213E4801F098
:10125C0092F801224FF480713B4801F08CF8002287
:10126C004FF40071384801F086F800224FF4806189
:10127C00354801F080F801224FF40061324801F04A
:10128C007AF800224FF480512F4801F074F80022B4
:10129C004FF400512C4801F06EF8ACE00022802194
:1012AC00294801F068F801224FF48071264801F0BA
:1012BC0062F800224FF40071234801F05CF8002220
:1012CC004FF48061204801F056F800224FF4006181
:1012DC001D4801F050F800224FF480511A4801F0DB
:1012EC004AF800224FF40051174801F044F882E00C
:1012FC0000228021144801F03EF800224FF4807146
:10130C00114801F038F800224FF400710E4801F03A
:10131C0032F801224FF480610B4801F02CF80122C5
:10132C004FF40061084801F026F801224FF4805177
:10133C00054801F020F801224FF40051024801F059
:10134C001AF858E000080140000C014000228021EE
:10135C002B4801F010F800224FF48071284801F05E
:10136C000AF800224FF40071254801F004F800221D
:10137C004FF48061224800F0FEFF00224FF4006120
:10138C001F4800F0F8FF00224FF480511C4800F079
:10139C00F2FF00224FF40051194800F0ECFF2AE054
:1013AC0000228021164800F0E6FF00224FF48071E5
:1013BC00134800F0E0FF00224FF40071104800F0D9
:1013CC00DAFF00224FF480610D4800F0D4FF0122B7
:1013DC004FF400610A4800F0CEFF00224FF4805118
:1013EC00074800F0C8FF00224FF40051044800F0F9
:1013FC00C2FF00E000BF00BF0837BD4680BD00BF84
:10140C00000C014080B500AF00F0B4FC00F046F8D1
:10141C0000F0CCF800F07EF8164801F009FC164BF1
:10142C0001221A60154B05221A60154B03221A6013
:10143C00144B02221A6000F02CF90A2200211248E7
:10144C0000F03CF90A220021104800F037F90A227A
:10145C0000210F4800F032F90A2200210D4800F05B
:10146C002DF90A2200210C4800F028F900F0EEF9C1
:10147C00FCE700BFB800002074000020B40000207E
:10148C00B0000020AC0000201D1A0008D901000893
:10149C0069080008190B0008710C000880B590B0A1
:1014AC0000AF07F1180328220021184601F070FF45
:1014BC003B1D00221A605A609A60DA601A6102239E
:1014CC00BB610123BB621023FB6200237B6307F12A
:1014DC001803184600F080FF0346002B01D000F0E3
:1014EC00D3F80F237B600023BB600023FB60002339
:1014FC003B6100237B613B1D0021184601F0ECF998
:10150C000346002B01D000F0BFF800BF4037BD46AA
:10151C0080BD000080B586B000AF07F10803002243
:10152C001A605A609A60DA603B4600221A605A6070
:10153C001D4B4FF080421A601B4B41F63F725A60B4
:10154C00194B00229A60184B0922DA60164B0022C4
:10155C001A61154B00229A61134801F019FB0346DE
:10156C00002B01D000F090F84FF48053BB6007F1D2
:10157C00080319460C4801F097FC0346002B01D0D8
:10158C0000F082F800233B6000237B603B46194649
:10159C00054801F06FFE0346002B01D000F074F8F3
:1015AC0000BF1837BD4680BDB800002080B586B09E
:1015BC0000AF07F1080300221A605A609A60DA60E3
:1015CC00294B9B69284A43F004039361264B9B6982
:1015DC0003F004037B607B68234B9B69224A43F036
:1015EC0008039361204B9B6903F008033B603B6845
:1015FC00002240F6FE711D4800F0BDFE002243F6AD
:10160C00FF711B4800F0B7FE40F6FE73BB60012370
:10161C00FB6000233B6102237B6107F10803194641
:10162C00124800F017FD43F6FF73BB600123FB600B
:10163C0000233B6102237B6107F1080319460C4828
:10164C0000F008FD4FF46043BB600023FB600123F6
:10165C003B6107F108031946044800F0FBFC00BF8E
:10166C001837BD4680BD00BF001002400008014085
:10167C00000C014080B582B000AF786000F076F8C5
:10168C0000BF0837BD4680BD80B400AF72B600BF46
:10169C00FEE780B582B000AF0023FB7106E0FB795A
:1016AC00184600F01FF9FB790133FB71FB79272BEE
:1016BC00F5D900BF00BF0837BD4680BD80B487B0E8
:1016CC0000AFF860B9607A600023FB7502E0FB7D27
:1016DC000133FB75FA7D224913469B0013449B0092
:1016EC000B441B68002B02D0FB7D272BEFD9FB7D15
:1016FC00282B04D11B4B01221A7028232BE0FA7DD6
:10170C00174913469B0013449B000B44FA681A605C
:10171C00FA7D134913469B0013449B000B4404337E
:10172C00BA681A60FA7D7B680F49A1FB0313D908CC
:10173C000B4813469B0013449B0003440833196069
:10174C00FA7D074913469B0013449B000B440C3352
:10175C0000221A70FB7D18461C37BD4680BC7047B2
:10176C000001002078000020CDCCCCCC80B483B01C
:10177C0000AF0023FB715DE0FA79334913469B00FF
:10178C0013449B000B441B68002B50D0FA792E4954
:10179C0013469B0013449B000B4404331B68002B23
:1017AC0032D1FA79284913469B0013449B000B4411
:1017BC000C331B78FA790133D8B2234913469B00BA
:1017CC0013449B000B440C3302461A70FA791E49E1
:1017DC0013469B0013449B000B4408331B68002BDF
:1017EC0025D0F979FA7918480B469B000B449B00DD
:1017FC00034408331968144813469B0013449B0098
:10180C0003440433196012E0FA790F4913469B0024
:10181C0013449B000B4404331B68FA79591E0A4885
:10182C0013469B0013449B00034404331960FB795B
:10183C000133FB71FB79272B9ED900BF00BF0C37FE
:10184C00BD4680BC704700BF0001002080B582B04F
:10185C0000AF0023FB713AE0FA79214913469B0053
:10186C0013449B000B440C331B78002B2CD0FA79BF
:10187C001B4913469B0013449B000B441B68984761
:10188C00FA79174913469B0013449B000B440C3305
:10189C001B78FA79013BD8B2114913469B001344CB
:1018AC009B000B440C3302461A70FA790C49134610
:1018BC009B0013449B000B4408331B68002B03D183
:1018CC00FB79184600F00EF8FB790133FB71FB79BC
:1018DC00272BC1D900BF00BF0837BD4680BD00BF54
:1018EC000001002080B485B000AF0346FB71FA798B
:1018FC001E4913469B0013449B000B441B68002B92
:10190C0005D11B4B02221A700023FB7328E0012324
:10191C00FB73FA79154913469B0013449B000B4447
:10192C0000221A60FA79114913469B0013449B005C
:10193C000B44043300221A60FA790C4913469B00BD
:10194C0013449B000B44083300221A60FA790749B0
:10195C0013469B0013449B000B440C3300221A705B
:10196C00FB7B18461437BD4680BC70470001002035
:10197C007800002080B483B000AF7860074B1B6800
:10198C007A6892FBF3F3064A1360064B00221A6046
:10199C0000BF0C37BD4680BC704700BF4000002024
:1019AC00340000207C00002080B483B000AF78604D
:1019BC00074B1B687A6892FBF3F3064A1360064BDD
:1019CC0000221A6000BF0C37BD4680BC704700BFB8
:1019DC0040000020380000208000002080B483B03C
:1019EC0000AF7860074B1B687A6892FBF3F3064AEA
:1019FC001360064B00221A6000BF0C37BD4680BC3A
:101A0C00704700BF400000203C00002084000020F4
:101A1C0080B400AF134B1B68002B02D1124B012278
:101A2C001A60124B1B68002B02D1114B01221A6059
:101A3C00104B1B68002B02D10F4B01221A60094B73
:101A4C001B68013B074A1360084B1B68013B074AA4
:101A5C001360084B1B68013B064A136000BFBD4670
:101A6C0080BC7047340000207C000020380000202F
:101A7C00800000203C0000208400002080B485B051
:101A8C0000AF154B9B69144A43F001039361124B51
:101A9C009B6903F00103BB60BB680F4BDB690E4A0B
:101AAC0043F08053D3610C4BDB6903F080537B60B4
:101ABC007B680A4B5B68FB60FB6823F0E063FB60B0
:101ACC00FB6843F08063FB60044AFB68536000BF13
:101ADC001437BD4680BC7047001002400000014026
:101AEC0080B584B000AF78607B681B68B3F1804F21
:101AFC0013D10C4BDB690B4A43F00103D361094B47
:101B0C00DB6903F00103FB60FB68002200211C2051
:101B1C0000F069FA1C2000F082FA00BF1037BD46B5
:101B2C0080BD00BF0010024080B400AFFEE780B45F
:101B3C0000AFFEE780B400AFFEE780B400AFFEE775
:101B4C0080B400AFFEE780B400AF00BFBD4680BCE0
:101B5C00704780B400AF00BFBD4680BC704780B4F6
:101B6C0000AF00BFBD4680BC704780B500AF00F031
:101B7C0047F900BF80BD000080B500AF024801F0FE
:101B8C00A3F800BF80BD00BFB800002080B400AF38
:101B9C0000BFBD4680BC704780B500AF002240211D
:101BAC00104800F0E8FB002280210E4800F0E3FB17
:101BBC0000224FF480710B4800F0DDFB00224FF443
:101BCC000071084800F0D7FB00224FF480610548F3
:101BDC0000F0D1FB00224FF40061024800F0CBFB77
:101BEC0000BF80BD0008014080B500AF002240213D
:101BFC00104800F0C0FB002280210E4800F0BBFB17
:101C0C0001224FF480710B4800F0B5FB00224FF419
:101C1C000071084800F0AFFB00224FF480610548CA
:101C2C0000F0A9FB01224FF40061024800F0A3FB75
:101C3C0000BF80BD0008014080B500AF00224021EC
:101C4C00104800F098FB002280210E4800F093FB16
:101C5C0001224FF480710B4800F08DFB00224FF4F1
:101C6C000071084800F087FB01224FF480610548A1
:101C7C0000F081FB00224FF40061024800F07BFB76
:101C8C0000BF80BD0008014080B500AF012240219B
:101C9C00104800F070FB002280210E4800F06BFB16
:101CAC0000224FF480710B4800F065FB01224FF4C9
:101CBC000071084800F05FFB00224FF4806105487A
:101CCC0000F059FB00224FF40061024800F053FB76
:101CDC0000BF80BD0008014080B500AF002240214C
:101CEC00104800F048FB012280210E4800F043FB15
:101CFC0000224FF480710B4800F03DFB01224FF4A1
:101D0C000071084800F037FB00224FF48061054851
:101D1C0000F031FB00224FF40061024800F02BFB75
:101D2C0000BF80BD00080140FFF730FF0B480C4995
:101D3C000C4A002302E0D458C4500433C4188C421B
:101D4C00F9D3094A094C002301E013600432A24282
:101D5C00FBD301F0F9FAFFF755FB704700000020A8
:101D6C0050000020F0330008500000202404002014
:101D7C00FEE7000080B500AF084B1B68074A43F034
:101D8C0010031360032000F023F90F2000F008F873
:101D9C00FFF774FE0023184680BD00BF00200240F0
:101DAC0080B582B000AF7860124B1A68124B1B786A
:101DBC0019464FF47A73B3FBF1F3B2FBF3F3184605
:101DCC0000F03BF90346002B01D001230EE07B68A9
:101DDC000F2B0AD8002279684FF0FF3000F003F97E
:101DEC00064A7B681360002300E00123184608377D
:101DFC00BD4680BD440000204C000020480000205F
:101E0C0080B400AF054B1B781A46054B1B68134476
:101E1C00034A136000BFBD4680BC70474C000020D5
:101E2C002004002080B400AF024B1B681846BD464E
:101E3C0080BC70472004002080B485B000AF78606F
:101E4C007B6803F00703FB600C4BDB68BB60BA6874
:101E5C004FF6FF031340BB60FB681A02BB681343C9
:101E6C0043F0BF6343F40033BB60044ABB68D360E8
:101E7C0000BF1437BD4680BC704700BF00ED00E0CA
:101E8C0080B400AF044BDB681B0A03F00703184651
:101E9C00BD4680BC704700BF00ED00E080B483B04D
:101EAC0000AF0346FB7197F90730002B0BDBFB7976
:101EBC0003F01F02064997F907305B09012000FA6D
:101ECC0002F241F8232000BF0C37BD4680BC70479E
:101EDC0000E100E080B483B000AF03463960FB71D1
:101EEC0097F90730002B0ADB3B68DAB20C4997F9FB
:101EFC0007301201D2B20B4483F800230AE03B688E
:101F0C00DAB20849FB7903F00F03043B1201D2B299
:101F1C000B441A7600BF0C37BD4680BC704700BF1F
:101F2C0000E100E000ED00E080B489B000AFF860A3
:101F3C00B9607A60FB6803F00703FB61FB69C3F1CE
:101F4C000703042B28BF0423BB61FB690433062B56
:101F5C0002D9FB69033B00E000237B614FF0FF32A9
:101F6C00BB6902FA03F3DA43BB681A407B699A40F7
:101F7C004FF0FF317B6901FA03F3D9437B680B40C7
:101F8C00134318462437BD4680BC704780B582B0D9
:101F9C0000AF78607B68013BB3F1807F01D30123F4
:101FAC000FE00A4A7B68013B53600F214FF0FF3072
:101FBC00FFF790FF054B00229A60044B07221A6032
:101FCC00002318460837BD4680BD00BF10E000E076
:101FDC0080B582B000AF78607868FFF72DFF00BF46
:101FEC000837BD4680BD80B586B000AF0346B960EA
:101FFC007A60FB7300237B61FFF742FF78617A689C
:10200C00B9687869FFF790FF024697F90F301146CF
:10201C001846FFF75FFF00BF1837BD4680BD80B57F
:10202C0082B000AF0346FB7197F907301846FFF7F3
:10203C0035FF00BF0837BD4680BD80B582B000AF0C
:10204C0078607868FFF7A2FF034618460837BD464C
:10205C0080BD000080B48BB000AF78603960002385
:10206C007B6200233B6248E101227B6A02FA03F3A4
:10207C00FB613B681B68FA691340BB61BA69FB6979
:10208C009A4240F037813B685B68A34A93425ED02A
:10209C00A14A934275D8A14A934258D09F4A934281
:1020AC006FD89F4A934252D09D4A934269D89D4A19
:1020BC0093424CD09B4A934263D89B4A934246D05E
:1020CC00994A93425DD8122B2AD8122B59D801A2C7
:1020DC0052F823F05B210008352100084721000845
:1020EC00892100088F2100088F2100088F2100080A
:1020FC008F2100088F2100088F2100088F210008F4
:10210C008F2100088F2100088F2100088F210008E3
:10211C008F2100088F2100083D2100085121000863
:10212C00824A934213D02CE03B68DB683B6229E087
:10213C003B68DB6804333B6224E03B68DB680833B4
:10214C003B621FE03B68DB680C333B621AE03B6888
:10215C009B68002B02D104233B6213E03B689B6815
:10216C00012B05D108233B627B68FA691A6109E0EF
:10217C0008233B627B68FA695A6103E000233B62E7
:10218C0000E000BFBB69FF2B01D87B6801E07B68D6
:10219C0004337B61BB69FF2B02D87B6A9B0002E096
:1021AC007B6A083B9B003B617B691A680F213B698A
:1021BC0001FA03F3DB431A40396A3B6901FA03F372
:1021CC001A437B691A603B685B6803F08053002BF1
:1021DC0000F09080564B9B69554A43F00103936184
:1021EC00534B9B6903F00103BB60BB68514A7B6A8C
:1021FC009B08023352F82330FB607B6A03F0030325
:10220C009B000F2202FA03F3DB43FA681340FB60D6
:10221C007B68494A93420DD07B68484A934207D069
:10222C007B68474A934201D1022304E0032302E076
:10223C00012300E000237A6A02F00302920093402B
:10224C00FA681343FB603B497B6A9B080233FA68CC
:10225C0041F823203B685B6803F48013002B06D005
:10226C00384B9A683749BB6913438B6006E0354B92
:10227C009A68BB69DB43334913408B603B685B68EE
:10228C0003F40013002B06D02E4BDA682D49BB69E2
:10229C001343CB6006E02B4BDA68BB69DB4329495F
:1022AC001340CB603B685B6803F40033002B06D013
:1022BC00244B5A682349BB6913434B6006E0214BFE
:1022CC005A68BB69DB431F4913404B603B685B6832
:1022DC0003F48033002B06D01A4B1A681949BB69DA
:1022EC0013430B6006E0174B1A68BB69DB431549B7
:1022FC0013400B607B6A01337B623B681A687B6A14
:10230C0022FA03F3002B7FF4AFAE00BF00BF2C37D3
:10231C00BD4680BC704700BF000032100000311079
:10232C0000002210000021100000121000001110FB
:10233C00001002400000014000080140000C014068
:10234C00001001400004014080B485B000AF7860FB
:10235C000B467B807B689A687B881340002B02D0ED
:10236C000123FB7301E00023FB73FB7B184614373E
:10237C00BD4680BC704780B483B000AF78600B461C
:10238C007B8013467B707B78002B03D07A887B682C
:10239C001A6103E07B881A047B681A6100BF0C3752
:1023AC00BD4680BC704780B485B000AF78600B46EA
:1023BC007B807B68DB68FB607A88FB6813401A04BF
:1023CC00FB68D9437B880B401A437B681A6100BFBA
:1023DC001437BD4680BC704780B586B000AF7860BE
:1023EC007B68002B01D101236CE27B681B6803F036
:1023FC000103002B00F08780924B5B6803F00C0309
:10240C00042B0CD08F4B5B6803F00C03082B12D100
:10241C008C4B5B6803F48033B3F5803F0BD1894B55
:10242C001B6803F40033002B6CD07B685B68002BBB
:10243C0068D1012346E27B685B68B3F5803F06D127
:10244C00804B1B687F4A43F4803313602EE07B681B
:10245C005B68002B0CD17B4B1B687A4A23F48033CE
:10246C001360784B1B68774A23F4802313601DE0BC
:10247C007B685B68B3F5A02F0CD1724B1B68714A5B
:10248C0043F4802313606F4B1B686E4A43F4803314
:10249C0013600BE06B4B1B686A4A23F480331360A8
:1024AC00684B1B68674A23F4802313607B685B6866
:1024BC00002B13D0FFF7B6FC386108E0FFF7B2FC35
:1024CC0002463B69D31A642B01D90323FAE15D4B15
:1024DC001B6803F40033002BF0D014E0FFF7A2FCD0
:1024EC00386108E0FFF79EFC02463B69D31A642B67
:1024FC0001D90323E6E1534B1B6803F40033002B93
:10250C00F0D100E000BF7B681B6803F00203002BD6
:10251C0063D04C4B5B6803F00C03002B0BD0494B86
:10252C005B6803F00C03082B1CD1464B5B6803F46F
:10253C008033002B16D1434B1B6803F00203002B96
:10254C0005D07B681B69012B01D00123BAE13D4BFF
:10255C001B6823F0F8027B685B69DB003949134385
:10256C000B603AE07B681B69002B20D0364B0122B4
:10257C001A60FFF757FC386108E0FFF753FC02467E
:10258C003B69D31A022B01D903239BE12D4B1B680A
:10259C0003F00203002BF0D02A4B1B6823F0F80247
:1025AC007B685B69DB00274913430B6015E0264B06
:1025BC0000221A60FFF736FC386108E0FFF732FCA6
:1025CC0002463B69D31A022B01D903237AE11D4B36
:1025DC001B6803F00203002BF0D17B681B6803F02F
:1025EC000803002B3AD07B689B69002B19D0174B42
:1025FC0001221A60FFF716FC386108E0FFF712FCA5
:10260C0002463B69D31A022B01D903235AE10D4B25
:10261C005B6A03F00203002BF0D0012000F09AFA61
:10262C001CE00A4B00221A60FFF7FCFB38610FE03C
:10263C00FFF7F8FB02463B69D31A022B08D9032398
:10264C0040E100BF001002400000424280044242C0
:10265C009E4B5B6A03F00203002BE9D17B681B687D
:10266C0003F00403002B00F0A6800023FB75974BAE
:10267C00DB6903F08053002B0DD1944BDB69934A3B
:10268C0043F08053D361914BDB6903F08053BB6003
:10269C00BB680123FB758E4B1B6803F48073002B06
:1026AC0018D18B4B1B688A4A43F480731360FFF775
:1026BC00B9FB386108E0FFF7B5FB02463B69D31A5A
:1026CC00642B01D90323FDE0814B1B6803F4807359
:1026DC00002BF0D07B68DB68012B06D17B4B1B6A8F
:1026EC007A4A43F0010313622DE07B68DB68002B10
:1026FC000CD1764B1B6A754A23F001031362734BA2
:10270C001B6A724A23F0040313621CE07B68DB68CB
:10271C00052B0CD16D4B1B6A6C4A43F004031362FE
:10272C006A4B1B6A694A43F0010313620BE0674B67
:10273C001B6A664A23F001031362644B1B6A634AEB
:10274C0023F0040313627B68DB68002B15D0FFF7C2
:10275C0069FB38610AE0FFF765FB02463B69D31A57
:10276C0041F28832934201D90323ABE0574B1B6AE9
:10277C0003F00203002BEED014E0FFF753FB38619B
:10278C000AE0FFF74FFB02463B69D31A41F288324D
:10279C00934201D9032395E04C4B1B6A03F00203CF
:1027AC00002BEED1FB7D012B05D1484BDB69474A51
:1027BC0023F08053D3617B68DB69002B00F08180B0
:1027CC00424B5B6803F00C03082B61D07B68DB6920
:1027DC00022B46D13F4B00221A60FFF723FB3861D6
:1027EC0008E0FFF71FFB02463B69D31A022B01D905
:1027FC00032367E0354B1B6803F00073002BF0D10B
:10280C007B681B6AB3F5803F08D1304B5B6823F4BF
:10281C0000327B689B682D4913434B602B4B5B68E4
:10282C0023F474127B68196A7B685B6A0B43274933
:10283C0013434B60274B01221A60FFF7F3FA386100
:10284C0008E0FFF7EFFA02463B69D31A022B01D9D5
:10285C00032337E01D4B1B6803F00073002BF0D0F3
:10286C002FE01C4B00221A60FFF7DCFA386108E0FD
:10287C00FFF7D8FA02463B69D31A022B01D903237E
:10288C0020E0124B1B6803F00073002BF0D118E012
:10289C007B68DB69012B01D1012313E00B4B5B68D7
:1028AC00FB60FB6803F480327B681B6A9A4206D19A
:1028BC00FB6803F470127B685B6A9A4201D00123B7
:1028CC0000E0002318461837BD4680BD00100240BA
:1028DC00007000406000424280B584B000AF786068
:1028EC0039607B68002B01D10123D0E06A4B1B6857
:1028FC0003F007033A689A4210D9674B1B6823F020
:10290C00070265493B6813430B60634B1B6803F07C
:10291C0007033A689A4201D00123B8E07B681B6830
:10292C0003F00203002B20D07B681B6803F0040328
:10293C00002B05D0594B5B68584A43F4E063536055
:10294C007B681B6803F00803002B05D0534B5B68B6
:10295C00524A43F460535360504B5B6823F0F002CF
:10296C007B689B684D4913434B607B681B6803F085
:10297C000103002B40D07B685B68012B07D1474BD0
:10298C001B6803F40033002B15D101237FE07B6817
:10299C005B68022B07D1414B1B6803F00073002BC3
:1029AC0009D1012373E03D4B1B6803F00203002B9C
:1029BC0001D101236BE0394B5B6823F003027B6888
:1029CC005B68364913434B60FFF72CFAF8600AE05A
:1029DC00FFF728FA0246FB68D31A41F28832934279
:1029EC0001D9032353E02D4B5B6803F00C027B6889
:1029FC005B689B009A42EBD1274B1B6803F00703E3
:102A0C003A689A4210D2244B1B6823F007022249E1
:102A1C003B6813430B60204B1B6803F007033A68B9
:102A2C009A4201D0012332E07B681B6803F0040357
:102A3C00002B08D0194B5B6823F4E0627B68DB68E1
:102A4C00164913434B607B681B6803F00803002B8B
:102A5C0009D0124B5B6823F460527B681B69DB0066
:102A6C000E4913434B6000F021F802460B4B5B6898
:102A7C001B0903F00F030A49CB5C22FA03F3094A42
:102A8C001360094B1B681846FFF78AF90023184698
:102A9C001037BD4680BD00BF002002400010024030
:102AAC00C4330008440000204800002080B487B0E4
:102ABC0000AF0023FB600023BB6000237B6100237D
:102ACC007B6000233B611E4B5B68FB60FB6803F083
:102ADC000C03042B02D0082B03D027E0194B3B61CD
:102AEC0027E0FB689B0C03F00F03174AD35C7B6059
:102AFC00FB6803F48033002B10D0114B5B685B0C2C
:102B0C0003F00103114AD35CBB607B680D4A02FBE6
:102B1C0003F2BB68B2FBF3F37B6104E07B680C4A05
:102B2C0002FB03F37B617B693B6102E0054B3B617C
:102B3C0000BF3B6918461C37BD4680BC704700BFC0
:102B4C000010024000127A00D4330008E43300086D
:102B5C0000093D0080B485B000AF78600A4B1B685B
:102B6C000A4AA2FB03235B0A7A6802FB03F3FB60AD
:102B7C0000BFFB685A1EFA60002BF9D100BF00BFE2
:102B8C001437BD4680BC704744000020D34D621002
:102B9C0080B582B000AF78607B68002B01D1012337
:102BAC0041E07B6893F83D30DBB2002B06D17B68AB
:102BBC00002283F83C207868FEF792FF7B680222A3
:102BCC0083F83D207B681A687B68043319461046ED
:102BDC0000F056FA7B68012283F846207B680122BC
:102BEC0083F83E207B68012283F83F207B6801221A
:102BFC0083F840207B68012283F841207B68012206
:102C0C0083F842207B68012283F843207B680122F1
:102C1C0083F844207B68012283F845207B680122DD
:102C2C0083F83D20002318460837BD4680BD0000C0
:102C3C0080B485B000AF78607B6893F83D30DBB230
:102C4C00012B01D0012335E07B68022283F83D2063
:102C5C007B681B68DA687B681B6842F00102DA60EB
:102C6C007B681B68164A934209D07B681B68B3F1DA
:102C7C00804F04D07B681B68124A934211D17B6849
:102C8C001B689B6803F00703FB60FB68062B10D0E6
:102C9C007B681B681A687B681B6842F001021A602B
:102CAC0007E07B681B681A687B681B6842F00102AE
:102CBC001A60002318461437BD4680BC704700BF0D
:102CCC00002C01400004004080B584B000AF786057
:102CDC007B681B68DB68FB607B681B681B69BB60DF
:102CEC00BB6803F00203002B20D0FB6803F0020347
:102CFC00002B1BD07B681B686FF002021A617B688B
:102D0C0001221A777B681B689B6903F00303002B75
:102D1C0003D0786800F098F905E0786800F08BF93A
:102D2C00786800F09AF97B6800221A77BB6803F088
:102D3C000403002B20D0FB6803F00403002B1BD0F2
:102D4C007B681B686FF004021A617B6802221A7799
:102D5C007B681B689B6903F44073002B03D0786875
:102D6C0000F072F905E0786800F065F9786800F019
:102D7C0074F97B6800221A77BB6803F00803002BF8
:102D8C0020D0FB6803F00803002B1BD07B681B686A
:102D9C006FF008021A617B6804221A777B681B6843
:102DAC00DB6903F00303002B03D0786800F04CF9C7
:102DBC0005E0786800F03FF9786800F04EF97B6820
:102DCC0000221A77BB6803F01003002B20D0FB689D
:102DDC0003F01003002B1BD07B681B686FF01002F4
:102DEC001A617B6808221A777B681B68DB6903F41D
:102DFC004073002B03D0786800F026F905E0786862
:102E0C0000F019F9786800F028F97B6800221A772D
:102E1C00BB6803F00103002B0CD0FB6803F001032B
:102E2C00002B07D07B681B686FF001021A61786871
:102E3C00FEF720FCBB6803F08003002B0CD0FB6872
:102E4C0003F08003002B07D07B681B686FF08002B7
:102E5C001A61786800F06FFABB6803F04003002B2E
:102E6C000CD0FB6803F04003002B07D07B681B6879
:102E7C006FF040021A61786800F0F8F8BB6803F054
:102E8C002003002B0CD0FB6803F02003002B07D091
:102E9C007B681B686FF020021A61786800F042FAB8
:102EAC0000BF1037BD4680BD80B584B000AF7860E0
:102EBC0039600023FB737B6893F83C30012B01D104
:102ECC000223B4E07B68012283F83C207B68022259
:102EDC0083F83D207B681B689B68BB60BB6823F054
:102EEC007703BB60BB6823F47F43BB607B681B68C4
:102EFC00BA689A603B681B68B3F5005F3ED0B3F5C7
:102F0C00005F00F28780B3F5805F00F08680B3F538
:102F1C00805F7FD8702B1AD0702B7BD8602B50D051
:102F2C00602B77D8502B3CD0502B73D8402B58D0DB
:102F3C00402B6FD8302B64D0302B6BD8202B60D02B
:102F4C00202B67D8002B5CD0102B5AD062E07B680A
:102F5C0018683B6899683B685A683B68DB6800F006
:102F6C006AF97B681B689B68BB60BB6843F077039E
:102F7C00BB607B681B68BA689A604FE07B68186816
:102F8C003B6899683B685A683B68DB6800F053F90A
:102F9C007B681B689A687B681B6842F480429A6065
:102FAC003CE07B6818683B6859683B68DB681A46EC
:102FBC0000F0CAF87B681B685021184600F021F914
:102FCC002CE07B6818683B6859683B68DB681A46DC
:102FDC0000F0E8F87B681B686021184600F011F9D6
:102FEC001CE07B6818683B6859683B68DB681A46CC
:102FFC0000F0AAF87B681B684021184600F001F924
:10300C000CE07B681A683B681B681946104600F098
:10301C00F8F803E00123FB7300E000BF7B6801229A
:10302C0083F83D207B68002283F83C20FB7B18460C
:10303C001037BD4680BD80B483B000AF786000BF50
:10304C000C37BD4680BC704780B483B000AF78604D
:10305C0000BF0C37BD4680BC704780B483B000AF56
:10306C00786000BF0C37BD4680BC704780B483B01D
:10307C0000AF786000BF0C37BD4680BC70470000C5
:10308C0080B485B000AF786039607B681B68FB60EA
:10309C007B682B4A934207D07B68B3F1804F03D0F7
:1030AC007B68284A934208D1FB6823F07003FB60CD
:1030BC003B685B68FA681343FB607B68204A934269
:1030CC0007D07B68B3F1804F03D07B681D4A9342D5
:1030DC0008D1FB6823F44073FB603B68DB68FA683B
:1030EC001343FB60FB6823F080023B685B6913436E
:1030FC00FB607B68FA681A603B689A687B68DA62E6
:10310C003B681A687B689A627B680D4A934203D1CC
:10311C003B681A697B681A637B6801225A617B6879
:10312C001B6903F00103002B05D07B681B6923F09E
:10313C0001027B681A6100BF1437BD4680BC704722
:10314C00002C01400004004080B487B000AFF86050
:10315C00B9607A60FB681B6A7B61FB681B6A23F0B1
:10316C000102FB681A62FB689B693B613B6923F0B7
:10317C00F0033B617B681B013A6913433B617B693C
:10318C0023F00A037B617A69BB6813437B61FB689C
:10319C003A699A61FB687A691A6200BF1C37BD46AE
:1031AC0080BC704780B487B000AFF860B9607A60BB
:1031BC00FB681B6A7B61FB681B6A23F01002FB68CF
:1031CC001A62FB689B693B613B6923F470433B616A
:1031DC007B681B033A6913433B617B6923F0A003B3
:1031EC007B61BB681B017A6913437B61FB683A699D
:1031FC009A61FB687A691A6200BF1C37BD4680BCB5
:10320C00704780B485B000AF786039607B689B688C
:10321C00FB60FB6823F07003FB603A68FB681343A8
:10322C0043F00703FB607B68FA689A6000BF1437B1
:10323C00BD4680BC704780B487B000AFF860B96001
:10324C007A603B60FB689B687B617B6923F47F43FE
:10325C007B613B681A027B681A43BB6813437A692B
:10326C0013437B61FB687A699A6000BF1C37BD46CB
:10327C0080BC704780B485B000AF786039607B68E3
:10328C0093F83C30012B01D1022341E07B680122F1
:10329C0083F83C207B68022283F83D207B681B6806
:1032AC005B68FB607B681B689B68BB60FB6823F0FA
:1032BC007003FB603B681B68FA681343FB607B6818
:1032CC001B68FA685A607B681B68144A934209D0E1
:1032DC007B681B68B3F1804F04D07B681B68104A75
:1032EC0093420CD1BB6823F08003BB603B685B68E6
:1032FC00BA681343BB607B681B68BA689A607B68CA
:10330C00012283F83D207B68002283F83C200023B7
:10331C0018461437BD4680BC704700BF002C0140D6
:10332C000004004080B483B000AF786000BF0C375D
:10333C00BD4680BC704780B483B000AF786000BFDE
:10334C000C37BD4680BC704770B500260C4D0D4C3B
:10335C00641BA410A64209D100F022F800260A4DE5
:10336C000A4C641BA410A64205D170BD55F8043B51
:10337C0098470136EEE755F8043B98470136F2E7DB
:10338C00E8330008E8330008E8330008EC330008A1
:10339C0003460244934200D1704703F8011BF9E73E
:1033AC00F8B500BFF8BC08BC9E467047F8B500BF26
:0833BC00F8BC08BC9E467047F6
:1033C40000000000000000000102030406070809D1
:1033D40002030405060708090A0B0C0D0E0F101052
:0433E40001020000E2
:0433E80031010008A7
:0433EC000D010008C7
:1033F00001000000010000000100000001000000C9
:1034000001000000010000000100000001000000B8
:1034100001000000010000000100000001000000A8
:10342000C8000000010000000100000001000000D1
:103430000A00000000127A001000000001000000E5
:0400000508001D359D
:00000001FF
