:020000040800F2
:100000000028002099030008750300087703000802
:10001000790300087B0300087D030008000000004E
:100020000000000000000000000000007F03000846
:100030008103000800000000830300088503000816
:10004000E1030008E1030008E1030008E103000800
:10005000E1030008E1030008E1030008E1030008F0
:10006000E1030008E1030008E1030008E1030008E0
:10007000E1030008E1030008E1030008E1030008D0
:10008000E1030008E1030008E1030008E1030008C0
:10009000E1030008E1030008E1030008E1030008B0
:1000A000E1030008E1030008E1030008E1030008A0
:1000B00089030008E103000800000000E1030008D4
:1000C000E10300080000000000000000E103000858
:1000D00000000000E1030008E10300080000000048
:1000E000E1030008E1030008E1030008000000004C
:1000F0000000000000000000000000000000000000
:0C01000000000000000000005FF808F1A3
:10010C0010B5054C237833B9044B13B10448AFF345
:10011C0000800123237010BD14000020000000009B
:10012C001410000808B5034B1BB103490348AFF387
:10013C00008008BD0000000018000020141000080A
:10014C0000B591B02422002107A800F055FF14221D
:10015C00002101A800F050FF022301210693102377
:10016C0006A8CDE90A1300F0D1FA014608B172B61F
:10017C00FEE70F23CDE90300CDE90130059001A87E
:10018C0000F086FC08B172B6FEE711B05DF804FB16
:10019C0000B589B000F044F9FFF7D2FF102200211E
:1001AC000DEB020000F028FF3D4B4FF6FE719A69F3
:1001BC003C4842F004029A619A69002502F004025C
:1001CC000092009A9A69022442F008029A619B6993
:1001DC00002203F008030193019B00F089FA00222E
:1001EC0043F6FB71304800F083FA01264FF6FE739C
:1001FC002C4804A9CDE90436CDE9065400F09CF94D
:10020C0043F6FB73284804A9CDE90436CDE906541E
:10021C0000F092F903230422234804A9CDE9042316
:10022C0000F08AF9102229460DEB020000F0E4FEE2
:10023C0041F63F734FF080411C4CCDE90255C4E9A7
:10024C00001309232046C4E90335A560A56100F01D
:10025C00B1FD08B172B6FEE74FF48053204604A9F5
:10026C00049300F0DDFD08B172B6FEE7CDE90200A3
:10027C0002A9204600F070FE08B172B6FEE72046D7
:10028C0000F0A2FC074C4FF40051064800F02AFA8B
:10029C000028F8D12021204600F02FFAF3E700BF08
:1002AC000010024000080140000C01403800002002
:1002BC0000F000B8084930B5086810B90122074BA6
:1002CC001A60074B1A6812B90125064C25600138D3
:1002DC00013A08601A6030BD000000203000002098
:1002EC0004000020340000200E4B82B09A6942F0CA
:1002FC0001029A619A6902F001020092009ADA698D
:10030C0042F08052DA61DB69074A03F080530193B3
:10031C00019B536823F0E06343F08063536002B0A9
:10032C00704700BF0010024000000140036807B591
:10033C00B3F1804F15D103F50433DA691C2042F078
:10034C000102DA610022DB69114603F0010301931B
:10035C00019B00F09BF81C2003B05DF804EB00F04F
:10036C00C7B803B05DF804FBFEE7FEE7FEE7FEE767
:10037C00FEE770477047704700F064B8014800F022
:10038C004DBC00BF3800002070470000FFF7FCFF99
:10039C000B480C490C4A002302E0D458C4500433D7
:1003AC00C4188C42F9D3094A094C002301E01360AC
:1003BC000432A242FBD300F0FBFDFFF7E9FE7047CD
:1003CC000000002014000020581000081400002029
:1003DC0084000020FEE7000038B50E4B0546187867
:1003EC004FF47A73B3FBF0F30B4A1068B0FBF3F0E5
:1003FC0000F08CF8044658B90F2D09D8024629464E
:10040C004FF0FF3000F042F82046044B1D6038BD21
:10041C000120FCE70C000020080000201000002048
:10042C00074A08B51368032043F01003136000F06B
:10043C001BF80F20FFF7D0FFFFF756FF002008BD79
:10044C0000200240034A044B11681B780B441360D4
:10045C00704700BF800000200C000020014B186882
:10046C00704700BF8000002007490302CA6803F4EC
:10047C00E06322F4E0621204120C134343F0BF63F6
:10048C0043F40033CB60704700ED00E0164B30B501
:10049C00DC68C4F30224C4F10703251D042B28BF18
:1004AC000423062D4FF0FF3598BF002405FA03F303
:1004BC0088BF033C21EA0303A34005FA04F422EAB3
:1004CC000402002843EA0203ACBF00F16040074A73
:1004DC004FEA0313DBB2ABBF00F5614000F00F0035
:1004EC0080F80033135430BD00ED00E014ED00E053
:1004FC00002808DB0123420900F01F0003FA00F07A
:10050C00014B43F82200704700E100E00138B0F1E4
:10051C00807F0AD2F021064B064A586082F82310DD
:10052C000020072298601A6070470120704700BFB6
:10053C0010E000E000ED00E02DE9F74F0022164638
:10054C00604BDFF894C1DFF894E10D6835FA06F4DE
:10055C0002D103B0BDE8F08F4FF0010808FA06F89D
:10056C0005EA080438EA050578D14D68032D07D84B
:10057C00013D022D00F28280DFE805F091969C008F
:10058C00122D00F094806BD8112D00F08A80FF2C76
:10059C0098BF82464FF00F0988BF00F1040A4FEA5A
:1005AC008605DAF8008088BF203D09FA05FB28EAA9
:1005BC000B0802FA05F548EA0505CAF80050D1F80F
:1005CC0004A01AF0805F49D03F4F26F00308BD69A4
:1005DC0008F1804845F00105BD61BD6908F580381A
:1005EC0005F00105019506F0030B019D4FEA8B0BFD
:1005FC00D8F8085009FA0BF925EA0909334DA84235
:10060C005CD005F58065A8425AD005F58065A842F6
:10061C000CBF0225032505FA0BF545EA0905C8F8B8
:10062C0008509D681AF4801F14BF2543A5439D6094
:10063C00DD681AF4001F14BF2543A543DD605D6817
:10064C001AF4003F14BF2543A5435D601D681AF4DE
:10065C00803F14BF2C4325EA04041C60013674E768
:10066C001B4FBD420AD015D8754507D0DFF87090E6
:10067C004D4503D0A9F580194D4588D18A68DAB16A
:10068C00012A08BFC0F810804FF0080218BFC0F84C
:10069C0014807CE70F4FBD42F0D06545EDE7CA688A
:1006AC0075E7CA68043272E7CA6808326FE7CA682D
:1006BC000C326CE700226AE7042268E70025AAE7FF
:1006CC000125A8E700040140001002400008014089
:1006DC000000221000003110000032100000121037
:1006EC00000021108368194214BF012000207047BC
:1006FC000AB1016170470904FBE7C36801EA030210
:10070C0021EA030141EA0241016170472DE9F341FD
:10071C00054638B30368DB0710D42B689F075ED4FB
:10072C002B68190700F195802B685A0700F1BF80E0
:10073C00E869002840F02C81002029E08F4C636888
:10074C0003F00C03042B07D0636803F00C03082B95
:10075C000AD16368DE0307D523689C03DDD56B687B
:10076C00002BDAD1012013E06B68B3F5803F12D176
:10077C00236843F480332360FFF770FE064623683A
:10078C009803CAD4FFF76AFE801B6428F7D90320AC
:10079C0002B0BDE8F0819BB9236823F48033236059
:1007AC00236823F480232360FFF758FE0646236852
:1007BC009903B2D5FFF752FE801B6428F7D9E6E700
:1007CC00B3F5A02F236803D143F480232360CFE734
:1007DC0023F480332360236823F48023CBE7674C16
:1007EC00636813F00C0F07D0636803F00C03082B3D
:1007FC0010D16368DA030DD423689B0702D52B69EB
:10080C00012BAFD123686A6923F0F80343EAC203D2
:10081C00236085E72A695A4B6AB101221A60FFF7F7
:10082C001DFE064623689F07ECD4FFF717FE801BBE
:10083C000228F7D9ABE71A60FFF710FE06462368CB
:10084C0098077FF56DAFFFF709FE801B0228F6D9DC
:10085C009DE7AA69494E4B4BDAB101221A60FFF7AA
:10086C00FDFD0446736A9B070DD54FF4FA52464BB7
:10087C001B68B3FBF2F3019300BF019B5A1E01925C
:10088C00002BF9D150E7FFF7E9FD001B0228E9D94D
:10089C007DE71A60FFF7E2FD0446736A9F077FF558
:1008AC0043AFFFF7DBFD001B0228F6D96FE7334C93
:1008BC00E369D80024D40127E36943F08053E36152
:1008CC00E36903F080530093009B304E3368D905E5
:1008DC0018D5EB68012B26D1236A43F00103236260
:1008EC00FFF7BCFD41F288380646236A9B073FD5CB
:1008FC00002F3FF41DAFE36923F08053E36117E74A
:10090C000027E2E7336843F480733360FFF7A6FDFA
:10091C0080463368DA05DCD4FFF7A0FDA0EB0800B5
:10092C006428F6D933E7ABB9236A41F2883823F04F
:10093C0001032362236A23F004032362FFF78EFD75
:10094C000646236A9807D3D5FFF788FD801B4045E0
:10095C00F7D91CE7052B236A03D143F00403236268
:10096C00BAE723F001032362236A23F00403B6E7FA
:10097C00FFF774FD801B4045B7D908E70010024013
:10098C0000004242800442420800002000700040F7
:10099C002A4B5A681C4602F00C02082A3DD0002350
:1009AC00274E022833602BD1FFF758FD07462368EA
:1009BC0099011FD42B6AB3F5803F05D16268A968F1
:1009CC0022F400320A436260696A62680B4322F4C3
:1009DC0074121343636001233360FFF73FFD054638
:1009EC0023689A013FF5A8AEFFF738FD401B02289B
:1009FC00F6D9CCE6FFF732FDC01B0228D7D9C6E6E4
:100A0C00FFF72CFD054623689B017FF595AEFFF79C
:100A1C0025FD401B0228F6D9B9E601283FF4B8AEF3
:100A2C005B682A6A03F4803191427FF49BAE6A6A58
:100A3C0003F4701393423FF47FAE93E60010024030
:100A4C00600042420D494B6803F00C02082A12D197
:100A5C000B48C3F38342DB03825C09D509484B681E
:100A6C005043094AC3F34043D35CB0FBF3F07047E7
:100A7C000648504370470348704700BF00100240BF
:100A8C003C10000800127A004C10000800093D00D0
:100A9C002DE9F0410D46044610B90120BDE8F08166
:100AAC00444A136803F007038B4228D321688E074E
:100ABC0030D4CA0743D43F4A136803F00703AB4250
:100ACC0065D822683C4D12F0040F6CD1130706D583
:100ADC006B68226923F4605343EAC2036B60FFF72F
:100AEC00B1FF6B68354AC3F30313D35CD840344B66
:100AFC001860344B1868FFF76FFC0020CEE71368C2
:100B0C0023F007030B431360136803F007038B42B6
:100B1C00C3D1CBE7284B11F0040F1EBF5A6842F427
:100B2C00E0625A60080742BF5A6842F460525A6049
:100B3C005A68A06822F0F00202435A60B9E7626872
:100B4C001D4E012A33681AD113F4003FA5D07368E7
:100B5C0041F2883823F0030313437360FFF77EFCE4
:100B6C0007467368626803F00C03B3EB820FA2D0E4
:100B7C00FFF774FCC01B4045F3D903208EE7022A13
:100B8C0002D113F0007FE1E713F0020FDEE71368E8
:100B9C0023F007032B431360136803F00703AB42E6
:100BAC007FF47BAF8DE76B68E16823F4E0630B4364
:100BBC006B608BE700200240001002402C100008F4
:100BCC00080000201000002090F83D30012B1CD1B3
:100BDC00022380F83D300368DA6842F00102DA60E3
:100BEC000B4A934206D0B3F1804F03D0A2F5943256
:100BFC00934204D19A6802F00702062A03D01A68BD
:100C0C0042F001021A60002070470120704700BFBB
:100C1C00002C01407047704770477047036870B5EF
:100C2C00DD681E690446B1070DD5AA070BD56FF018
:100C3C0002021A61012202779B699B0769D0FFF7B8
:100C4C00EAFF00232377710710D56A070ED56FF0E2
:100C5C000402236820461A61022222779B6913F44E
:100C6C00407F5CD0FFF7D7FF0023237733070FD5E6
:100C7C0028070DD56FF00802236820461A6104225C
:100C8C002277DB69990750D0FFF7C5FF0023237744
:100C9C00F20610D5EB060ED56FF010022368204635
:100CAC001A6108222277DB6913F4407F43D0FFF7E7
:100CBC00B2FF00232377F00708D5E90706D56FF0BC
:100CCC000102236820461A61FFF7F2FA320608D5B2
:100CDC002B0606D56FF08002236820461A6100F0BF
:100CEC0066F9700608D5690606D56FF040022368D0
:100CFC0020461A61FFF791FFB20622D5AB0620D52C
:100D0C006FF0200223682046BDE870401A6100F0A5
:100D1C004DB9FFF77FFF2046FFF77EFF91E7FFF706
:100D2C0079FF2046FFF778FF9EE7FFF773FF204619
:100D3C00FFF772FFAAE7FFF76DFF2046FFF76CFF86
:100D4C00B7E770BD194A10B59042036805D0B0F1F1
:100D5C00804F02D0164CA04210D14C6823F0700387
:100D6C00904243EA040305D0B0F1804F02D0104A00
:100D7C00904203D1CA6823F4407313434A6923F0A9
:100D8C008003134303608B68C3620B688362074B59
:100D9C00984204BF0B690363012343610369DB07BA
:100DAC0042BF036923F00103036110BD002C014015
:100DBC000004004010B5044630B390F83D3003F009
:100DCC00FF021BB980F83C20FFF7B0FA0223206821
:100DDC0084F83D30211DFFF7B5FF0123002084F876
:100DEC00463084F83E3084F83F3084F8403084F844
:100DFC00413084F8423084F8433084F8443084F82D
:100E0C00453084F83D3010BD0120FCE710B58468F6
:100E1C000A4324F47F4442EA03222243826010BD39
:100E2C0070B590F83C300446012B4FF0020300F0F3
:100E3C009180012280F83D3080F83C200068836866
:100E4C0023F47F4323F0770383600B68602B52D02D
:100E5C0033D8402B67D016D8202B0DD00AD833F0BE
:100E6C00100109D0012384F83D30002384F83C3074
:100E7C00104670BD302BF5D1826822F070021343FE
:100E8C0043F0070317E0502BECD14A68CE68016A97
:100E9C00056A21F00A0125F00105056283690A4300
:100EAC0023F0F00343EA061383610262836823F0A4
:100EBC00700343F05703836011E0B3F5805F0ED0ED
:100ECC00B3F5005F0DD0702BCCD1CB68D1E90121EB
:100EDC00FFF79CFF2268936843F07703936000222E
:100EEC00C0E7CB68D1E90121FFF790FF2268936836
:100EFC0043F48043F2E7036A4D68CE68016A23F03D
:100F0C00A00321F010010162826943EA051322F467
:100F1C00704242EA063282610362836823F07003F6
:100F2C0043F06703C7E74A68CE68016A056A21F097
:100F3C000A0125F00105056283690A4323F0F003D9
:100F4C0043EA061383610262836823F0700343F063
:100F5C004703B0E71A468BE730B590F83C200346C0
:100F6C00012A4FF002001ED01A6883F83D00546825
:100F7C000D6824F070042C43906854600A4CA24213
:100F8C0006D0B2F1804F03D0A4F59434A24204D120
:100F9C00496820F08000014391600122002083F811
:100FAC003D2083F83C0030BD002C01407047704759
:100FBC0070B500260C4D0D4C641BA410A64209D133
:100FCC0000F022F800260A4D0A4C641BA410A6421D
:100FDC0005D170BD55F8043B98470136EEE755F83E
:100FEC00043B98470136F2E75010000850100008F7
:100FFC00501000085410000803460244934200D1DC
:10100C00704703F8011BF9E7F8B500BFF8BC08BC42
:10101C009E467047F8B500BFF8BC08BC9E467047AA
:10102C00000000000000000001020304060708098C
:10103C0002030405060708090A0B0C0D0E0F10100D
:04104C00010200009D
:041050003101000862
:041054000D01000882
:10105800010000000100000000127A0001000000F9
:041068001000000074
:040000050800039953
:00000001FF
